{
  "contractName": "BasicCoinManager",
  "abi": [
    {
      "constant": true,
      "inputs": [
        {
          "name": "_owner",
          "type": "address"
        }
      ],
      "name": "countByOwner",
      "outputs": [
        {
          "name": "",
          "type": "uint256"
        }
      ],
      "payable": false,
      "stateMutability": "view",
      "type": "function"
    },
    {
      "constant": true,
      "inputs": [],
      "name": "count",
      "outputs": [
        {
          "name": "",
          "type": "uint256"
        }
      ],
      "payable": false,
      "stateMutability": "view",
      "type": "function"
    },
    {
      "constant": false,
      "inputs": [
        {
          "name": "_new",
          "type": "address"
        }
      ],
      "name": "setOwner",
      "outputs": [],
      "payable": false,
      "stateMutability": "nonpayable",
      "type": "function"
    },
    {
      "constant": true,
      "inputs": [],
      "name": "base",
      "outputs": [
        {
          "name": "",
          "type": "uint256"
        }
      ],
      "payable": false,
      "stateMutability": "view",
      "type": "function"
    },
    {
      "constant": true,
      "inputs": [],
      "name": "owner",
      "outputs": [
        {
          "name": "",
          "type": "address"
        }
      ],
      "payable": false,
      "stateMutability": "view",
      "type": "function"
    },
    {
      "constant": true,
      "inputs": [
        {
          "name": "_index",
          "type": "uint256"
        }
      ],
      "name": "get",
      "outputs": [
        {
          "name": "coin",
          "type": "address"
        },
        {
          "name": "owner",
          "type": "address"
        },
        {
          "name": "tokenreg",
          "type": "address"
        }
      ],
      "payable": false,
      "stateMutability": "view",
      "type": "function"
    },
    {
      "constant": false,
      "inputs": [],
      "name": "drain",
      "outputs": [],
      "payable": false,
      "stateMutability": "nonpayable",
      "type": "function"
    },
    {
      "constant": false,
      "inputs": [
        {
          "name": "_totalSupply",
          "type": "uint256"
        },
        {
          "name": "_tla",
          "type": "string"
        },
        {
          "name": "_name",
          "type": "string"
        },
        {
          "name": "_tokenreg",
          "type": "address"
        }
      ],
      "name": "deploy",
      "outputs": [
        {
          "name": "",
          "type": "bool"
        }
      ],
      "payable": true,
      "stateMutability": "payable",
      "type": "function"
    },
    {
      "constant": true,
      "inputs": [
        {
          "name": "_owner",
          "type": "address"
        },
        {
          "name": "_index",
          "type": "uint256"
        }
      ],
      "name": "getByOwner",
      "outputs": [
        {
          "name": "coin",
          "type": "address"
        },
        {
          "name": "owner",
          "type": "address"
        },
        {
          "name": "tokenreg",
          "type": "address"
        }
      ],
      "payable": false,
      "stateMutability": "view",
      "type": "function"
    },
    {
      "anonymous": false,
      "inputs": [
        {
          "indexed": true,
          "name": "owner",
          "type": "address"
        },
        {
          "indexed": true,
          "name": "tokenreg",
          "type": "address"
        },
        {
          "indexed": true,
          "name": "coin",
          "type": "address"
        }
      ],
      "name": "Created",
      "type": "event"
    },
    {
      "anonymous": false,
      "inputs": [
        {
          "indexed": true,
          "name": "old",
          "type": "address"
        },
        {
          "indexed": true,
          "name": "current",
          "type": "address"
        }
      ],
      "name": "NewOwner",
      "type": "event"
    }
  ],
  "bytecode": "0x6060604052336000806101000a81548173ffffffffffffffffffffffffffffffffffffffff021916908373ffffffffffffffffffffffffffffffffffffffff160217905550341561004f57600080fd5b611a828061005e6000396000f300606060405260043610610099576000357c0100000000000000000000000000000000000000000000000000000000900463ffffffff168063061ea8cc1461009e57806306661abd146100eb57806313af4035146101145780635001f3b51461014d5780638da5cb5b146101765780639507d39a146101cb5780639890220b14610294578063acfdfd1c146102a9578063c00ca3831461037e575b600080fd5b34156100a957600080fd5b6100d5600480803573ffffffffffffffffffffffffffffffffffffffff16906020019091905050610466565b6040518082815260200191505060405180910390f35b34156100f657600080fd5b6100fe6104b2565b6040518082815260200191505060405180910390f35b341561011f57600080fd5b61014b600480803573ffffffffffffffffffffffffffffffffffffffff169060200190919050506104bf565b005b341561015857600080fd5b6101606105d8565b6040518082815260200191505060405180910390f35b341561018157600080fd5b6101896105df565b604051808273ffffffffffffffffffffffffffffffffffffffff1673ffffffffffffffffffffffffffffffffffffffff16815260200191505060405180910390f35b34156101d657600080fd5b6101ec6004808035906020019091905050610604565b604051808473ffffffffffffffffffffffffffffffffffffffff1673ffffffffffffffffffffffffffffffffffffffff1681526020018373ffffffffffffffffffffffffffffffffffffffff1673ffffffffffffffffffffffffffffffffffffffff1681526020018273ffffffffffffffffffffffffffffffffffffffff1673ffffffffffffffffffffffffffffffffffffffff168152602001935050505060405180910390f35b341561029f57600080fd5b6102a76106a6565b005b610364600480803590602001909190803590602001908201803590602001908080601f0160208091040260200160405190810160405280939291908181526020018383808284378201915050505050509190803590602001908201803590602001908080601f0160208091040260200160405190810160405280939291908181526020018383808284378201915050505050509190803573ffffffffffffffffffffffffffffffffffffffff1690602001909190505061075a565b604051808215151515815260200191505060405180910390f35b341561038957600080fd5b6103be600480803573ffffffffffffffffffffffffffffffffffffffff16906020019091908035906020019091905050610cc1565b604051808473ffffffffffffffffffffffffffffffffffffffff1673ffffffffffffffffffffffffffffffffffffffff1681526020018373ffffffffffffffffffffffffffffffffffffffff1673ffffffffffffffffffffffffffffffffffffffff1681526020018273ffffffffffffffffffffffffffffffffffffffff1673ffffffffffffffffffffffffffffffffffffffff168152602001935050505060405180910390f35b6000600260008373ffffffffffffffffffffffffffffffffffffffff1673ffffffffffffffffffffffffffffffffffffffff168152602001908152602001600020805490509050919050565b6000600180549050905090565b6000809054906101000a900473ffffffffffffffffffffffffffffffffffffffff1673ffffffffffffffffffffffffffffffffffffffff163373ffffffffffffffffffffffffffffffffffffffff1614151561051a57600080fd5b8073ffffffffffffffffffffffffffffffffffffffff166000809054906101000a900473ffffffffffffffffffffffffffffffffffffffff1673ffffffffffffffffffffffffffffffffffffffff167f70aea8d848e8a90fb7661b227dc522eb6395c3dac71b63cb59edd5c9899b236460405160405180910390a3806000806101000a81548173ffffffffffffffffffffffffffffffffffffffff021916908373ffffffffffffffffffffffffffffffffffffffff16021790555050565b620f424081565b6000809054906101000a900473ffffffffffffffffffffffffffffffffffffffff1681565b60008060008060018581548110151561061957fe5b906000526020600020906003020190508060000160009054906101000a900473ffffffffffffffffffffffffffffffffffffffff1693508060010160009054906101000a900473ffffffffffffffffffffffffffffffffffffffff1692508060020160009054906101000a900473ffffffffffffffffffffffffffffffffffffffff169150509193909250565b6000809054906101000a900473ffffffffffffffffffffffffffffffffffffffff1673ffffffffffffffffffffffffffffffffffffffff163373ffffffffffffffffffffffffffffffffffffffff1614151561070157600080fd5b3373ffffffffffffffffffffffffffffffffffffffff166108fc3073ffffffffffffffffffffffffffffffffffffffff16319081150290604051600060405180830381858888f19350505050151561075857600080fd5b565b6000806000806000859350883361076f610d33565b808381526020018273ffffffffffffffffffffffffffffffffffffffff1673ffffffffffffffffffffffffffffffffffffffff16815260200192505050604051809103906000f08015156107c257600080fd5b92506107cd33610466565b91508373ffffffffffffffffffffffffffffffffffffffff1663ddca3f436000604051602001526040518163ffffffff167c0100000000000000000000000000000000000000000000000000000000028152600401602060405180830381600087803b151561083b57600080fd5b6102c65a03f1151561084c57600080fd5b50505060405180519050905060018201600260003373ffffffffffffffffffffffffffffffffffffffff1673ffffffffffffffffffffffffffffffffffffffff168152602001908152602001600020816108a69190610d43565b50600180549050600260003373ffffffffffffffffffffffffffffffffffffffff1673ffffffffffffffffffffffffffffffffffffffff168152602001908152602001600020838154811015156108f957fe5b9060005260206000209001819055506001805480600101828161091c9190610d6f565b916000526020600020906003020160006060604051908101604052808773ffffffffffffffffffffffffffffffffffffffff1681526020013373ffffffffffffffffffffffffffffffffffffffff1681526020018873ffffffffffffffffffffffffffffffffffffffff16815250909190915060008201518160000160006101000a81548173ffffffffffffffffffffffffffffffffffffffff021916908373ffffffffffffffffffffffffffffffffffffffff16021790555060208201518160010160006101000a81548173ffffffffffffffffffffffffffffffffffffffff021916908373ffffffffffffffffffffffffffffffffffffffff16021790555060408201518160020160006101000a81548173ffffffffffffffffffffffffffffffffffffffff021916908373ffffffffffffffffffffffffffffffffffffffff1602179055505050508373ffffffffffffffffffffffffffffffffffffffff16637b1a547c82858b620f42408c336000604051602001526040518763ffffffff167c0100000000000000000000000000000000000000000000000000000000028152600401808673ffffffffffffffffffffffffffffffffffffffff1673ffffffffffffffffffffffffffffffffffffffff16815260200180602001858152602001806020018473ffffffffffffffffffffffffffffffffffffffff1673ffffffffffffffffffffffffffffffffffffffff168152602001838103835287818151815260200191508051906020019080838360005b83811015610b6e578082015181840152602081019050610b53565b50505050905090810190601f168015610b9b5780820380516001836020036101000a031916815260200191505b50838103825285818151815260200191508051906020019080838360005b83811015610bd4578082015181840152602081019050610bb9565b50505050905090810190601f168015610c015780820380516001836020036101000a031916815260200191505b509750505050505050506020604051808303818588803b1515610c2357600080fd5b6125ee5a03f11515610c3457600080fd5b5050505060405180519050508273ffffffffffffffffffffffffffffffffffffffff168473ffffffffffffffffffffffffffffffffffffffff163373ffffffffffffffffffffffffffffffffffffffff167f454b0172f64812df0cd504c2bd7df7aab8ff328a54d946b4bd0fa7c527adf9cc60405160405180910390a46001945050505050949350505050565b6000806000610d26600260008773ffffffffffffffffffffffffffffffffffffffff1673ffffffffffffffffffffffffffffffffffffffff16815260200190815260200160002085815481101515610d1557fe5b906000526020600020900154610604565b9250925092509250925092565b604051610bfc80610e5b83390190565b815481835581811511610d6a57818360005260206000209182019101610d699190610da1565b5b505050565b815481835581811511610d9c57600302816003028360005260206000209182019101610d9b9190610dc6565b5b505050565b610dc391905b80821115610dbf576000816000905550600101610da7565b5090565b90565b610e5791905b80821115610e5357600080820160006101000a81549073ffffffffffffffffffffffffffffffffffffffff02191690556001820160006101000a81549073ffffffffffffffffffffffffffffffffffffffff02191690556002820160006101000a81549073ffffffffffffffffffffffffffffffffffffffff021916905550600301610dcc565b5090565b9056006060604052336000806101000a81548173ffffffffffffffffffffffffffffffffffffffff021916908373ffffffffffffffffffffffffffffffffffffffff160217905550341561004f57600080fd5b604051604080610bfc83398101604052808051906020019091908051906020019091905050600034111561008257600080fd5b81600081141561009157600080fd5b82600181905550816000806101000a81548173ffffffffffffffffffffffffffffffffffffffff021916908373ffffffffffffffffffffffffffffffffffffffff160217905550600154600260008473ffffffffffffffffffffffffffffffffffffffff1673ffffffffffffffffffffffffffffffffffffffff16815260200190815260200160002060000181905550505050610ac9806101336000396000f300606060405260043610610099576000357c0100000000000000000000000000000000000000000000000000000000900463ffffffff168063095ea7b3146100a957806313af40351461010357806318160ddd1461013c57806323b872dd146101655780635001f3b5146101de57806370a08231146102075780638da5cb5b14610254578063a9059cbb146102a9578063dd62ed3e14610303575b34156100a457600080fd5b600080fd5b34156100b457600080fd5b6100e9600480803573ffffffffffffffffffffffffffffffffffffffff1690602001909190803590602001909190505061036f565b604051808215151515815260200191505060405180910390f35b341561010e57600080fd5b61013a600480803573ffffffffffffffffffffffffffffffffffffffff1690602001909190505061047a565b005b341561014757600080fd5b61014f610593565b6040518082815260200191505060405180910390f35b341561017057600080fd5b6101c4600480803573ffffffffffffffffffffffffffffffffffffffff1690602001909190803573ffffffffffffffffffffffffffffffffffffffff16906020019091908035906020019091905050610599565b604051808215151515815260200191505060405180910390f35b34156101e957600080fd5b6101f161082a565b6040518082815260200191505060405180910390f35b341561021257600080fd5b61023e600480803573ffffffffffffffffffffffffffffffffffffffff16906020019091905050610831565b6040518082815260200191505060405180910390f35b341561025f57600080fd5b61026761087d565b604051808273ffffffffffffffffffffffffffffffffffffffff1673ffffffffffffffffffffffffffffffffffffffff16815260200191505060405180910390f35b34156102b457600080fd5b6102e9600480803573ffffffffffffffffffffffffffffffffffffffff169060200190919080359060200190919050506108a2565b604051808215151515815260200191505060405180910390f35b341561030e57600080fd5b610359600480803573ffffffffffffffffffffffffffffffffffffffff1690602001909190803573ffffffffffffffffffffffffffffffffffffffff16906020019091905050610a13565b6040518082815260200191505060405180910390f35b60008034111561037e57600080fd5b8273ffffffffffffffffffffffffffffffffffffffff163373ffffffffffffffffffffffffffffffffffffffff167f8c5be1e5ebec7d5bd14f71427d1e84f3dd0314c0f7b2291e5b200ac8c7c3b925846040518082815260200191505060405180910390a381600260003373ffffffffffffffffffffffffffffffffffffffff1673ffffffffffffffffffffffffffffffffffffffff16815260200190815260200160002060010160008573ffffffffffffffffffffffffffffffffffffffff1673ffffffffffffffffffffffffffffffffffffffff168152602001908152602001600020600082825401925050819055506001905092915050565b6000809054906101000a900473ffffffffffffffffffffffffffffffffffffffff1673ffffffffffffffffffffffffffffffffffffffff163373ffffffffffffffffffffffffffffffffffffffff161415156104d557600080fd5b8073ffffffffffffffffffffffffffffffffffffffff166000809054906101000a900473ffffffffffffffffffffffffffffffffffffffff1673ffffffffffffffffffffffffffffffffffffffff167f70aea8d848e8a90fb7661b227dc522eb6395c3dac71b63cb59edd5c9899b236460405160405180910390a3806000806101000a81548173ffffffffffffffffffffffffffffffffffffffff021916908373ffffffffffffffffffffffffffffffffffffffff16021790555050565b60015481565b6000803411156105a857600080fd5b838280600260008473ffffffffffffffffffffffffffffffffffffffff1673ffffffffffffffffffffffffffffffffffffffff1681526020019081526020016000206000015410156105f957600080fd5b85338580600260008573ffffffffffffffffffffffffffffffffffffffff1673ffffffffffffffffffffffffffffffffffffffff16815260200190815260200160002060010160008473ffffffffffffffffffffffffffffffffffffffff1673ffffffffffffffffffffffffffffffffffffffff16815260200190815260200160002054101561068857600080fd5b8773ffffffffffffffffffffffffffffffffffffffff168973ffffffffffffffffffffffffffffffffffffffff167fddf252ad1be2c89b69c2b068fc378daa952ba7f163c4a11628f55a4df523b3ef896040518082815260200191505060405180910390a386600260008b73ffffffffffffffffffffffffffffffffffffffff1673ffffffffffffffffffffffffffffffffffffffff16815260200190815260200160002060010160003373ffffffffffffffffffffffffffffffffffffffff1673ffffffffffffffffffffffffffffffffffffffff1681526020019081526020016000206000828254039250508190555086600260008b73ffffffffffffffffffffffffffffffffffffffff1673ffffffffffffffffffffffffffffffffffffffff1681526020019081526020016000206000016000828254039250508190555086600260008a73ffffffffffffffffffffffffffffffffffffffff1673ffffffffffffffffffffffffffffffffffffffff168152602001908152602001600020600001600082825401925050819055506001955050505050509392505050565b620f424081565b6000600260008373ffffffffffffffffffffffffffffffffffffffff1673ffffffffffffffffffffffffffffffffffffffff168152602001908152602001600020600001549050919050565b6000809054906101000a900473ffffffffffffffffffffffffffffffffffffffff1681565b6000803411156108b157600080fd5b338280600260008473ffffffffffffffffffffffffffffffffffffffff1673ffffffffffffffffffffffffffffffffffffffff16815260200190815260200160002060000154101561090257600080fd5b8473ffffffffffffffffffffffffffffffffffffffff163373ffffffffffffffffffffffffffffffffffffffff167fddf252ad1be2c89b69c2b068fc378daa952ba7f163c4a11628f55a4df523b3ef866040518082815260200191505060405180910390a383600260003373ffffffffffffffffffffffffffffffffffffffff1673ffffffffffffffffffffffffffffffffffffffff1681526020019081526020016000206000016000828254039250508190555083600260008773ffffffffffffffffffffffffffffffffffffffff1673ffffffffffffffffffffffffffffffffffffffff1681526020019081526020016000206000016000828254019250508190555060019250505092915050565b6000600260008473ffffffffffffffffffffffffffffffffffffffff1673ffffffffffffffffffffffffffffffffffffffff16815260200190815260200160002060010160008373ffffffffffffffffffffffffffffffffffffffff1673ffffffffffffffffffffffffffffffffffffffff168152602001908152602001600020549050929150505600a165627a7a7230582035ce6e0638608772a3d51f4c596ffa2d2db8069fd3da4ec96806d7e36fd2b3880029a165627a7a72305820288880d8c40e3adfcfbff9e1feb98a1f587f1903e41f842cfe79d07705061d790029",
  "source": "//! The basic-coin ECR20-compliant token contract.\r\n//!\r\n//! Copyright 2016 Gavin Wood, Parity Technologies Ltd.\r\n//!\r\n//! Licensed under the Apache License, Version 2.0 (the \"License\");\r\n//! you may not use this file except in compliance with the License.\r\n//! You may obtain a copy of the License at\r\n//!\r\n//!     http://www.apache.org/licenses/LICENSE-2.0\r\n//!\r\n//! Unless required by applicable law or agreed to in writing, software\r\n//! distributed under the License is distributed on an \"AS IS\" BASIS,\r\n//! WITHOUT WARRANTIES OR CONDITIONS OF ANY KIND, either express or implied.\r\n//! See the License for the specific language governing permissions and\r\n//! limitations under the License.\r\n\r\npragma solidity ^0.4.1;\r\n\r\nimport \"./Owned.sol\";\r\nimport \"./Token.sol\";\r\n\r\n// TokenReg interface\r\ncontract TokenReg {\r\n\tfunction register(address _addr, string _tla, uint _base, string _name) payable returns (bool);\r\n\tfunction registerAs(address _addr, string _tla, uint _base, string _name, address _owner) payable returns (bool);\r\n\tfunction unregister(uint _id);\r\n\tfunction setFee(uint _fee);\r\n\tfunction tokenCount() constant returns (uint);\r\n\tfunction token(uint _id) constant returns (address addr, string tla, uint base, string name, address owner);\r\n\tfunction fromAddress(address _addr) constant returns (uint id, string tla, uint base, string name, address owner);\r\n\tfunction fromTLA(string _tla) constant returns (uint id, address addr, uint base, string name, address owner);\r\n\tfunction meta(uint _id, bytes32 _key) constant returns (bytes32);\r\n\tfunction setMeta(uint _id, bytes32 _key, bytes32 _value);\r\n\tfunction drain();\r\n\tuint public fee;\r\n}\r\n\r\n// BasicCoin, ECR20 tokens that all belong to the owner for sending around\r\ncontract BasicCoin is Owned, Token {\r\n\t// this is as basic as can be, only the associated balance & allowances\r\n\tstruct Account {\r\n\t\tuint balance;\r\n\t\tmapping (address => uint) allowanceOf;\r\n\t}\r\n\r\n\t// the balance should be available\r\n\tmodifier when_owns(address _owner, uint _amount) {\r\n\t\tif (accounts[_owner].balance < _amount) throw;\r\n\t\t_;\r\n\t}\r\n\r\n\t// an allowance should be available\r\n\tmodifier when_has_allowance(address _owner, address _spender, uint _amount) {\r\n\t\tif (accounts[_owner].allowanceOf[_spender] < _amount) throw;\r\n\t\t_;\r\n\t}\r\n\r\n\t// no ETH should be sent with the transaction\r\n\tmodifier when_no_eth {\r\n\t\tif (msg.value > 0) throw;\r\n\t\t_;\r\n\t}\r\n\r\n\t// a value should be > 0\r\n\tmodifier when_non_zero(uint _value) {\r\n\t\tif (_value == 0) throw;\r\n\t\t_;\r\n\t}\r\n\r\n\t// the base, tokens denoted in micros\r\n\tuint constant public base = 1000000;\r\n\r\n\t// available token supply\r\n\tuint public totalSupply;\r\n\r\n\t// storage and mapping of all balances & allowances\r\n\tmapping (address => Account) accounts;\r\n\r\n\t// constructor sets the parameters of execution, _totalSupply is all units\r\n\tfunction BasicCoin(uint _totalSupply, address _owner) when_no_eth when_non_zero(_totalSupply) {\r\n\t\ttotalSupply = _totalSupply;\r\n\t\towner = _owner;\r\n\t\taccounts[_owner].balance = totalSupply;\r\n\t}\r\n\r\n\t// balance of a specific address\r\n\tfunction balanceOf(address _who) constant returns (uint256) {\r\n\t\treturn accounts[_who].balance;\r\n\t}\r\n\r\n\t// transfer\r\n\tfunction transfer(address _to, uint256 _value) when_no_eth when_owns(msg.sender, _value) returns (bool) {\r\n\t\tTransfer(msg.sender, _to, _value);\r\n\t\taccounts[msg.sender].balance -= _value;\r\n\t\taccounts[_to].balance += _value;\r\n\r\n\t\treturn true;\r\n\t}\r\n\r\n\t// transfer via allowance\r\n\tfunction transferFrom(address _from, address _to, uint256 _value) when_no_eth when_owns(_from, _value) when_has_allowance(_from, msg.sender, _value) returns (bool) {\r\n\t\tTransfer(_from, _to, _value);\r\n\t\taccounts[_from].allowanceOf[msg.sender] -= _value;\r\n\t\taccounts[_from].balance -= _value;\r\n\t\taccounts[_to].balance += _value;\r\n\r\n\t\treturn true;\r\n\t}\r\n\r\n\t// approve allowances\r\n\tfunction approve(address _spender, uint256 _value) when_no_eth returns (bool) {\r\n\t\tApproval(msg.sender, _spender, _value);\r\n\t\taccounts[msg.sender].allowanceOf[_spender] += _value;\r\n\r\n\t\treturn true;\r\n\t}\r\n\r\n\t// available allowance\r\n\tfunction allowance(address _owner, address _spender) constant returns (uint256) {\r\n\t\treturn accounts[_owner].allowanceOf[_spender];\r\n\t}\r\n\r\n\t// no default function, simple contract only, entry-level users\r\n\tfunction() {\r\n\t\tthrow;\r\n\t}\r\n}\r\n\r\n// Manages BasicCoin instances, including the deployment & registration\r\ncontract BasicCoinManager is Owned {\r\n\t// a structure wrapping a deployed BasicCoin\r\n\tstruct Coin {\r\n\t\taddress coin;\r\n\t\taddress owner;\r\n\t\taddress tokenreg;\r\n\t}\r\n\r\n\t// a new BasicCoin has been deployed\r\n\tevent Created(address indexed owner, address indexed tokenreg, address indexed coin);\r\n\r\n\t// a list of all the deployed BasicCoins\r\n\tCoin[] coins;\r\n\r\n\t// all BasicCoins for a specific owner\r\n\tmapping (address => uint[]) ownedCoins;\r\n\r\n\t// the base, tokens denoted in micros (matches up with BasicCoin interface above)\r\n\tuint constant public base = 1000000;\r\n\r\n\t// return the number of deployed\r\n\tfunction count() constant returns (uint) {\r\n\t\treturn coins.length;\r\n\t}\r\n\r\n\t// get a specific deployment\r\n\tfunction get(uint _index) constant returns (address coin, address owner, address tokenreg) {\r\n\t\tCoin c = coins[_index];\r\n\r\n\t\tcoin = c.coin;\r\n\t\towner = c.owner;\r\n\t\ttokenreg = c.tokenreg;\r\n\t}\r\n\r\n\t// returns the number of coins for a specific owner\r\n\tfunction countByOwner(address _owner) constant returns (uint) {\r\n\t\treturn ownedCoins[_owner].length;\r\n\t}\r\n\r\n\t// returns a specific index by owner\r\n\tfunction getByOwner(address _owner, uint _index) constant returns (address coin, address owner, address tokenreg) {\r\n\t\treturn get(ownedCoins[_owner][_index]);\r\n\t}\r\n\r\n\t// deploy a new BasicCoin on the blockchain\r\n\tfunction deploy(uint _totalSupply, string _tla, string _name, address _tokenreg) payable returns (bool) {\r\n\t\tTokenReg tokenreg = TokenReg(_tokenreg);\r\n\t\tBasicCoin coin = new BasicCoin(_totalSupply, msg.sender);\r\n\r\n\t\tuint ownerCount = countByOwner(msg.sender);\r\n\t\tuint fee = tokenreg.fee();\r\n\r\n\t\townedCoins[msg.sender].length = ownerCount + 1;\r\n\t\townedCoins[msg.sender][ownerCount] = coins.length;\r\n\t\tcoins.push(Coin(coin, msg.sender, tokenreg));\r\n\t\ttokenreg.registerAs.value(fee)(coin, _tla, base, _name, msg.sender);\r\n\r\n\t\tCreated(msg.sender, tokenreg, coin);\r\n\r\n\t\treturn true;\r\n\t}\r\n\r\n\t// owner can withdraw all collected funds\r\n\tfunction drain() only_owner {\r\n\t\tif (!msg.sender.send(this.balance)) {\r\n\t\t\tthrow;\r\n\t\t}\r\n\t}\r\n}\r\n",
  "sourcePath": "C:\\Users\\anz\\Desktop\\PICOPS\\contracts\\BasicCoin.sol",
  "compiler": {
    "name": "solc",
    "version": "0.4.18+commit.9cf6e910.Emscripten.clang"
  },
  "schemaVersion": "1.0.1",
  "updatedAt": "2018-01-29T13:01:59.815Z"
}