{
  "contractName": "BasicCoin",
  "abi": [
    {
      "constant": false,
      "inputs": [
        {
          "name": "_new",
          "type": "address"
        }
      ],
      "name": "setOwner",
      "outputs": [],
      "payable": false,
      "stateMutability": "nonpayable",
      "type": "function"
    },
    {
      "constant": true,
      "inputs": [],
      "name": "totalSupply",
      "outputs": [
        {
          "name": "",
          "type": "uint256"
        }
      ],
      "payable": false,
      "stateMutability": "view",
      "type": "function"
    },
    {
      "constant": true,
      "inputs": [],
      "name": "base",
      "outputs": [
        {
          "name": "",
          "type": "uint256"
        }
      ],
      "payable": false,
      "stateMutability": "view",
      "type": "function"
    },
    {
      "constant": true,
      "inputs": [],
      "name": "owner",
      "outputs": [
        {
          "name": "",
          "type": "address"
        }
      ],
      "payable": false,
      "stateMutability": "view",
      "type": "function"
    },
    {
      "inputs": [
        {
          "name": "_totalSupply",
          "type": "uint256"
        },
        {
          "name": "_owner",
          "type": "address"
        }
      ],
      "payable": false,
      "stateMutability": "nonpayable",
      "type": "constructor"
    },
    {
      "payable": false,
      "stateMutability": "nonpayable",
      "type": "fallback"
    },
    {
      "anonymous": false,
      "inputs": [
        {
          "indexed": true,
          "name": "from",
          "type": "address"
        },
        {
          "indexed": true,
          "name": "to",
          "type": "address"
        },
        {
          "indexed": false,
          "name": "value",
          "type": "uint256"
        }
      ],
      "name": "Transfer",
      "type": "event"
    },
    {
      "anonymous": false,
      "inputs": [
        {
          "indexed": true,
          "name": "owner",
          "type": "address"
        },
        {
          "indexed": true,
          "name": "spender",
          "type": "address"
        },
        {
          "indexed": false,
          "name": "value",
          "type": "uint256"
        }
      ],
      "name": "Approval",
      "type": "event"
    },
    {
      "anonymous": false,
      "inputs": [
        {
          "indexed": true,
          "name": "old",
          "type": "address"
        },
        {
          "indexed": true,
          "name": "current",
          "type": "address"
        }
      ],
      "name": "NewOwner",
      "type": "event"
    },
    {
      "constant": true,
      "inputs": [
        {
          "name": "_who",
          "type": "address"
        }
      ],
      "name": "balanceOf",
      "outputs": [
        {
          "name": "",
          "type": "uint256"
        }
      ],
      "payable": false,
      "stateMutability": "view",
      "type": "function"
    },
    {
      "constant": false,
      "inputs": [
        {
          "name": "_to",
          "type": "address"
        },
        {
          "name": "_value",
          "type": "uint256"
        }
      ],
      "name": "transfer",
      "outputs": [
        {
          "name": "",
          "type": "bool"
        }
      ],
      "payable": false,
      "stateMutability": "nonpayable",
      "type": "function"
    },
    {
      "constant": false,
      "inputs": [
        {
          "name": "_from",
          "type": "address"
        },
        {
          "name": "_to",
          "type": "address"
        },
        {
          "name": "_value",
          "type": "uint256"
        }
      ],
      "name": "transferFrom",
      "outputs": [
        {
          "name": "",
          "type": "bool"
        }
      ],
      "payable": false,
      "stateMutability": "nonpayable",
      "type": "function"
    },
    {
      "constant": false,
      "inputs": [
        {
          "name": "_spender",
          "type": "address"
        },
        {
          "name": "_value",
          "type": "uint256"
        }
      ],
      "name": "approve",
      "outputs": [
        {
          "name": "",
          "type": "bool"
        }
      ],
      "payable": false,
      "stateMutability": "nonpayable",
      "type": "function"
    },
    {
      "constant": true,
      "inputs": [
        {
          "name": "_owner",
          "type": "address"
        },
        {
          "name": "_spender",
          "type": "address"
        }
      ],
      "name": "allowance",
      "outputs": [
        {
          "name": "",
          "type": "uint256"
        }
      ],
      "payable": false,
      "stateMutability": "view",
      "type": "function"
    }
  ],
  "bytecode": "0x6060604052336000806101000a81548173ffffffffffffffffffffffffffffffffffffffff021916908373ffffffffffffffffffffffffffffffffffffffff160217905550341561004f57600080fd5b604051604080610c088339810160405280805190602001909190805190602001909190505060003414151561008357600080fd5b816000811415151561009457600080fd5b82600181905550816000806101000a81548173ffffffffffffffffffffffffffffffffffffffff021916908373ffffffffffffffffffffffffffffffffffffffff160217905550600154600260008473ffffffffffffffffffffffffffffffffffffffff1673ffffffffffffffffffffffffffffffffffffffff16815260200190815260200160002060000181905550505050610ad2806101366000396000f300606060405260043610610099576000357c0100000000000000000000000000000000000000000000000000000000900463ffffffff168063095ea7b3146100a957806313af40351461010357806318160ddd1461013c57806323b872dd146101655780635001f3b5146101de57806370a08231146102075780638da5cb5b14610254578063a9059cbb146102a9578063dd62ed3e14610303575b34156100a457600080fd5b600080fd5b34156100b457600080fd5b6100e9600480803573ffffffffffffffffffffffffffffffffffffffff1690602001909190803590602001909190505061036f565b604051808215151515815260200191505060405180910390f35b341561010e57600080fd5b61013a600480803573ffffffffffffffffffffffffffffffffffffffff1690602001909190505061047b565b005b341561014757600080fd5b61014f610594565b6040518082815260200191505060405180910390f35b341561017057600080fd5b6101c4600480803573ffffffffffffffffffffffffffffffffffffffff1690602001909190803573ffffffffffffffffffffffffffffffffffffffff1690602001909190803590602001909190505061059a565b604051808215151515815260200191505060405180910390f35b34156101e957600080fd5b6101f1610830565b6040518082815260200191505060405180910390f35b341561021257600080fd5b61023e600480803573ffffffffffffffffffffffffffffffffffffffff16906020019091905050610837565b6040518082815260200191505060405180910390f35b341561025f57600080fd5b610267610883565b604051808273ffffffffffffffffffffffffffffffffffffffff1673ffffffffffffffffffffffffffffffffffffffff16815260200191505060405180910390f35b34156102b457600080fd5b6102e9600480803573ffffffffffffffffffffffffffffffffffffffff169060200190919080359060200190919050506108a8565b604051808215151515815260200191505060405180910390f35b341561030e57600080fd5b610359600480803573ffffffffffffffffffffffffffffffffffffffff1690602001909190803573ffffffffffffffffffffffffffffffffffffffff16906020019091905050610a1c565b6040518082815260200191505060405180910390f35b6000803414151561037f57600080fd5b8273ffffffffffffffffffffffffffffffffffffffff163373ffffffffffffffffffffffffffffffffffffffff167f8c5be1e5ebec7d5bd14f71427d1e84f3dd0314c0f7b2291e5b200ac8c7c3b925846040518082815260200191505060405180910390a381600260003373ffffffffffffffffffffffffffffffffffffffff1673ffffffffffffffffffffffffffffffffffffffff16815260200190815260200160002060010160008573ffffffffffffffffffffffffffffffffffffffff1673ffffffffffffffffffffffffffffffffffffffff168152602001908152602001600020600082825401925050819055506001905092915050565b6000809054906101000a900473ffffffffffffffffffffffffffffffffffffffff1673ffffffffffffffffffffffffffffffffffffffff163373ffffffffffffffffffffffffffffffffffffffff161415156104d657600080fd5b8073ffffffffffffffffffffffffffffffffffffffff166000809054906101000a900473ffffffffffffffffffffffffffffffffffffffff1673ffffffffffffffffffffffffffffffffffffffff167f70aea8d848e8a90fb7661b227dc522eb6395c3dac71b63cb59edd5c9899b236460405160405180910390a3806000806101000a81548173ffffffffffffffffffffffffffffffffffffffff021916908373ffffffffffffffffffffffffffffffffffffffff16021790555050565b60015481565b600080341415156105aa57600080fd5b838280600260008473ffffffffffffffffffffffffffffffffffffffff1673ffffffffffffffffffffffffffffffffffffffff16815260200190815260200160002060000154101515156105fd57600080fd5b85338580600260008573ffffffffffffffffffffffffffffffffffffffff1673ffffffffffffffffffffffffffffffffffffffff16815260200190815260200160002060010160008473ffffffffffffffffffffffffffffffffffffffff1673ffffffffffffffffffffffffffffffffffffffff168152602001908152602001600020541015151561068e57600080fd5b8773ffffffffffffffffffffffffffffffffffffffff168973ffffffffffffffffffffffffffffffffffffffff167fddf252ad1be2c89b69c2b068fc378daa952ba7f163c4a11628f55a4df523b3ef896040518082815260200191505060405180910390a386600260008b73ffffffffffffffffffffffffffffffffffffffff1673ffffffffffffffffffffffffffffffffffffffff16815260200190815260200160002060010160003373ffffffffffffffffffffffffffffffffffffffff1673ffffffffffffffffffffffffffffffffffffffff1681526020019081526020016000206000828254039250508190555086600260008b73ffffffffffffffffffffffffffffffffffffffff1673ffffffffffffffffffffffffffffffffffffffff1681526020019081526020016000206000016000828254039250508190555086600260008a73ffffffffffffffffffffffffffffffffffffffff1673ffffffffffffffffffffffffffffffffffffffff168152602001908152602001600020600001600082825401925050819055506001955050505050509392505050565b620f424081565b6000600260008373ffffffffffffffffffffffffffffffffffffffff1673ffffffffffffffffffffffffffffffffffffffff168152602001908152602001600020600001549050919050565b6000809054906101000a900473ffffffffffffffffffffffffffffffffffffffff1681565b600080341415156108b857600080fd5b338280600260008473ffffffffffffffffffffffffffffffffffffffff1673ffffffffffffffffffffffffffffffffffffffff168152602001908152602001600020600001541015151561090b57600080fd5b8473ffffffffffffffffffffffffffffffffffffffff163373ffffffffffffffffffffffffffffffffffffffff167fddf252ad1be2c89b69c2b068fc378daa952ba7f163c4a11628f55a4df523b3ef866040518082815260200191505060405180910390a383600260003373ffffffffffffffffffffffffffffffffffffffff1673ffffffffffffffffffffffffffffffffffffffff1681526020019081526020016000206000016000828254039250508190555083600260008773ffffffffffffffffffffffffffffffffffffffff1673ffffffffffffffffffffffffffffffffffffffff1681526020019081526020016000206000016000828254019250508190555060019250505092915050565b6000600260008473ffffffffffffffffffffffffffffffffffffffff1673ffffffffffffffffffffffffffffffffffffffff16815260200190815260200160002060010160008373ffffffffffffffffffffffffffffffffffffffff1673ffffffffffffffffffffffffffffffffffffffff168152602001908152602001600020549050929150505600a165627a7a7230582074be34eb7662879fe2790f86a795c297a722aa5949fe3fa68ac600f6b4a977350029",
  "source": "//! The basic-coin ECR20-compliant token contract.\r\n//!\r\n//! Copyright 2016 Gavin Wood, Parity Technologies Ltd.\r\n//!\r\n//! Licensed under the Apache License, Version 2.0 (the \"License\");\r\n//! you may not use this file except in compliance with the License.\r\n//! You may obtain a copy of the License at\r\n//!\r\n//!     http://www.apache.org/licenses/LICENSE-2.0\r\n//!\r\n//! Unless required by applicable law or agreed to in writing, software\r\n//! distributed under the License is distributed on an \"AS IS\" BASIS,\r\n//! WITHOUT WARRANTIES OR CONDITIONS OF ANY KIND, either express or implied.\r\n//! See the License for the specific language governing permissions and\r\n//! limitations under the License.\r\n\r\npragma solidity ^0.4.1;\r\n\r\nimport \"./Owned.sol\";\r\nimport \"./Token.sol\";\r\n\r\n// TokenReg interface\r\ncontract TokenReg {\r\n\tfunction register(address _addr, string _tla, uint _base, string _name) public payable returns (bool);\r\n\tfunction registerAs(address _addr, string _tla, uint _base, string _name, address _owner) public payable returns (bool);\r\n\tfunction unregister(uint _id) public;\r\n\tfunction setFee(uint _fee) public;\r\n\tfunction tokenCount() public constant returns (uint);\r\n\tfunction token(uint _id) public constant returns (address addr, string tla, uint base, string name, address owner);\r\n\tfunction fromAddress(address _addr) public constant returns (uint id, string tla, uint base, string name, address owner);\r\n\tfunction fromTLA(string _tla) public constant returns (uint id, address addr, uint base, string name, address owner);\r\n\tfunction meta(uint _id, bytes32 _key) public constant returns (bytes32);\r\n\tfunction setMeta(uint _id, bytes32 _key, bytes32 _value) public;\r\n\tfunction drain() public;\r\n\tuint public fee;\r\n}\r\n\r\n// BasicCoin, ECR20 tokens that all belong to the owner for sending around\r\ncontract BasicCoin is Owned, Token {\r\n\t// this is as basic as can be, only the associated balance & allowances\r\n\tstruct Account {\r\n\t\tuint balance;\r\n\t\tmapping (address => uint) allowanceOf;\r\n\t}\r\n\r\n\t// the balance should be available\r\n\tmodifier when_owns(address _owner, uint _amount) {\r\n\t\trequire(accounts[_owner].balance >= _amount);\r\n\t\t_;\r\n\t}\r\n\r\n\t// an allowance should be available\r\n\tmodifier when_has_allowance(address _owner, address _spender, uint _amount) {\r\n\t\trequire(accounts[_owner].allowanceOf[_spender] >= _amount);\r\n\t\t_;\r\n\t}\r\n\r\n\t// no ETH should be sent with the transaction\r\n\tmodifier when_no_eth {\r\n\t\trequire(msg.value == 0);\r\n\t\t_;\r\n\t}\r\n\r\n\t// a value should be > 0\r\n\tmodifier when_non_zero(uint _value) {\r\n\t\trequire(_value != 0);\r\n\t\t_;\r\n\t}\r\n\r\n\t// the base, tokens denoted in micros\r\n\tuint constant public base = 1000000;\r\n\r\n\t// available token supply\r\n\tuint public totalSupply;\r\n\r\n\t// storage and mapping of all balances & allowances\r\n\tmapping (address => Account) accounts;\r\n\r\n\t// constructor sets the parameters of execution, _totalSupply is all units\r\n\tfunction BasicCoin(uint _totalSupply, address _owner) public when_no_eth when_non_zero(_totalSupply) {\r\n\t\ttotalSupply = _totalSupply;\r\n\t\towner = _owner;\r\n\t\taccounts[_owner].balance = totalSupply;\r\n\t}\r\n\r\n\t// balance of a specific address\r\n\tfunction balanceOf(address _who) public constant returns (uint256) {\r\n\t\treturn accounts[_who].balance;\r\n\t}\r\n\r\n\t// transfer\r\n\tfunction transfer(address _to, uint256 _value) public when_no_eth when_owns(msg.sender, _value) returns (bool) {\r\n\t\tTransfer(msg.sender, _to, _value);\r\n\t\taccounts[msg.sender].balance -= _value;\r\n\t\taccounts[_to].balance += _value;\r\n\r\n\t\treturn true;\r\n\t}\r\n\r\n\t// transfer via allowance\r\n\tfunction transferFrom(address _from, address _to, uint256 _value) public when_no_eth when_owns(_from, _value) when_has_allowance(_from, msg.sender, _value) returns (bool) {\r\n\t\tTransfer(_from, _to, _value);\r\n\t\taccounts[_from].allowanceOf[msg.sender] -= _value;\r\n\t\taccounts[_from].balance -= _value;\r\n\t\taccounts[_to].balance += _value;\r\n\r\n\t\treturn true;\r\n\t}\r\n\r\n\t// approve allowances\r\n\tfunction approve(address _spender, uint256 _value) public when_no_eth returns (bool) {\r\n\t\tApproval(msg.sender, _spender, _value);\r\n\t\taccounts[msg.sender].allowanceOf[_spender] += _value;\r\n\r\n\t\treturn true;\r\n\t}\r\n\r\n\t// available allowance\r\n\tfunction allowance(address _owner, address _spender) public constant returns (uint256) {\r\n\t\treturn accounts[_owner].allowanceOf[_spender];\r\n\t}\r\n\r\n\t// no default function, simple contract only, entry-level users\r\n\tfunction() public {\r\n\t\trevert();\r\n\t}\r\n}\r\n\r\n// Manages BasicCoin instances, including the deployment & registration\r\ncontract BasicCoinManager is Owned {\r\n\t// a structure wrapping a deployed BasicCoin\r\n\tstruct Coin {\r\n\t\taddress coin;\r\n\t\taddress owner;\r\n\t\taddress tokenreg;\r\n\t}\r\n\r\n\t// a new BasicCoin has been deployed\r\n\tevent Created(address indexed owner, address indexed tokenreg, address indexed coin);\r\n\r\n\t// a list of all the deployed BasicCoins\r\n\tCoin[] coins;\r\n\r\n\t// all BasicCoins for a specific owner\r\n\tmapping (address => uint[]) ownedCoins;\r\n\r\n\t// the base, tokens denoted in micros (matches up with BasicCoin interface above)\r\n\tuint constant public base = 1000000;\r\n\r\n\t// return the number of deployed\r\n\tfunction count() public constant returns (uint) {\r\n\t\treturn coins.length;\r\n\t}\r\n\r\n\t// get a specific deployment\r\n\tfunction get(uint _index) public constant returns (address coin, address owner, address tokenreg) {\r\n\t\tCoin storage c = coins[_index];\r\n\r\n\t\tcoin = c.coin;\r\n\t\towner = c.owner;\r\n\t\ttokenreg = c.tokenreg;\r\n\t}\r\n\r\n\t// returns the number of coins for a specific owner\r\n\tfunction countByOwner(address _owner) public constant returns (uint) {\r\n\t\treturn ownedCoins[_owner].length;\r\n\t}\r\n\r\n\t// returns a specific index by owner\r\n\tfunction getByOwner(address _owner, uint _index) public constant returns (address coin, address owner, address tokenreg) {\r\n\t\treturn get(ownedCoins[_owner][_index]);\r\n\t}\r\n\r\n\t// deploy a new BasicCoin on the blockchain\r\n\tfunction deploy(uint _totalSupply, string _tla, string _name, address _tokenreg) public payable returns (bool) {\r\n\t\tTokenReg tokenreg = TokenReg(_tokenreg);\r\n\t\tBasicCoin coin = new BasicCoin(_totalSupply, msg.sender);\r\n\r\n\t\tuint ownerCount = countByOwner(msg.sender);\r\n\t\tuint fee = tokenreg.fee();\r\n\r\n\t\townedCoins[msg.sender].length = ownerCount + 1;\r\n\t\townedCoins[msg.sender][ownerCount] = coins.length;\r\n\t\tcoins.push(Coin(coin, msg.sender, tokenreg));\r\n\t\ttokenreg.registerAs.value(fee)(coin, _tla, base, _name, msg.sender);\r\n\r\n\t\tCreated(msg.sender, tokenreg, coin);\r\n\r\n\t\treturn true;\r\n\t}\r\n\r\n\t// owner can withdraw all collected funds\r\n\tfunction drain() public only_owner {\r\n\t\tif (!msg.sender.send(this.balance)) {\r\n\t\t    revert();\r\n\t\t}\r\n\t}\r\n}\r\n",
  "sourcePath": "C:\\Users\\cir\\Workspace\\diamondcoin\\ti8m-smart-contracts\\contracts\\BasicCoin.sol",
  "compiler": {
    "name": "solc",
    "version": "0.4.19+commit.c4cbbb05.Emscripten.clang"
  },
  "schemaVersion": "2.0.0",
  "updatedAt": "2018-03-22T12:51:53.190Z"
}