{
  "contractName": "DutchAuction",
  "abi": [
    {
      "constant": true,
      "inputs": [
        {
          "name": "",
          "type": "address"
        }
      ],
      "name": "participants",
      "outputs": [
        {
          "name": "",
          "type": "uint256"
        }
      ],
      "payable": false,
      "stateMutability": "view",
      "type": "function"
    },
    {
      "constant": true,
      "inputs": [],
      "name": "certifier",
      "outputs": [
        {
          "name": "",
          "type": "address"
        }
      ],
      "payable": false,
      "stateMutability": "view",
      "type": "function"
    },
    {
      "constant": true,
      "inputs": [],
      "name": "endTime",
      "outputs": [
        {
          "name": "",
          "type": "uint256"
        }
      ],
      "payable": false,
      "stateMutability": "view",
      "type": "function"
    },
    {
      "constant": true,
      "inputs": [],
      "name": "DUST_LIMIT",
      "outputs": [
        {
          "name": "",
          "type": "uint256"
        }
      ],
      "payable": false,
      "stateMutability": "view",
      "type": "function"
    },
    {
      "constant": true,
      "inputs": [],
      "name": "totalFinalised",
      "outputs": [
        {
          "name": "",
          "type": "uint256"
        }
      ],
      "payable": false,
      "stateMutability": "view",
      "type": "function"
    },
    {
      "constant": true,
      "inputs": [],
      "name": "saleSpeed",
      "outputs": [
        {
          "name": "",
          "type": "uint256"
        }
      ],
      "payable": false,
      "stateMutability": "view",
      "type": "function"
    },
    {
      "constant": true,
      "inputs": [],
      "name": "tokenContract",
      "outputs": [
        {
          "name": "",
          "type": "address"
        }
      ],
      "payable": false,
      "stateMutability": "view",
      "type": "function"
    },
    {
      "constant": true,
      "inputs": [],
      "name": "treasury",
      "outputs": [
        {
          "name": "",
          "type": "address"
        }
      ],
      "payable": false,
      "stateMutability": "view",
      "type": "function"
    },
    {
      "constant": true,
      "inputs": [],
      "name": "beginTime",
      "outputs": [
        {
          "name": "",
          "type": "uint256"
        }
      ],
      "payable": false,
      "stateMutability": "view",
      "type": "function"
    },
    {
      "constant": true,
      "inputs": [],
      "name": "totalReceived",
      "outputs": [
        {
          "name": "",
          "type": "uint256"
        }
      ],
      "payable": false,
      "stateMutability": "view",
      "type": "function"
    },
    {
      "constant": true,
      "inputs": [],
      "name": "endPrice",
      "outputs": [
        {
          "name": "",
          "type": "uint256"
        }
      ],
      "payable": false,
      "stateMutability": "view",
      "type": "function"
    },
    {
      "constant": true,
      "inputs": [],
      "name": "halted",
      "outputs": [
        {
          "name": "",
          "type": "bool"
        }
      ],
      "payable": false,
      "stateMutability": "view",
      "type": "function"
    },
    {
      "constant": true,
      "inputs": [],
      "name": "beginPrice",
      "outputs": [
        {
          "name": "",
          "type": "uint256"
        }
      ],
      "payable": false,
      "stateMutability": "view",
      "type": "function"
    },
    {
      "constant": true,
      "inputs": [],
      "name": "HIGHLY_CERTIFIED_LIMIT",
      "outputs": [
        {
          "name": "",
          "type": "uint256"
        }
      ],
      "payable": false,
      "stateMutability": "view",
      "type": "function"
    },
    {
      "constant": true,
      "inputs": [],
      "name": "tokenCap",
      "outputs": [
        {
          "name": "",
          "type": "uint256"
        }
      ],
      "payable": false,
      "stateMutability": "view",
      "type": "function"
    },
    {
      "constant": true,
      "inputs": [],
      "name": "admin",
      "outputs": [
        {
          "name": "",
          "type": "address"
        }
      ],
      "payable": false,
      "stateMutability": "view",
      "type": "function"
    },
    {
      "inputs": [
        {
          "name": "_certifierContract",
          "type": "address"
        },
        {
          "name": "_tokenContract",
          "type": "address"
        },
        {
          "name": "_treasury",
          "type": "address"
        },
        {
          "name": "_admin",
          "type": "address"
        },
        {
          "name": "_beginTime",
          "type": "uint256"
        },
        {
          "name": "_beginPrice",
          "type": "uint256"
        },
        {
          "name": "_saleSpeed",
          "type": "uint256"
        },
        {
          "name": "_tokenCap",
          "type": "uint256"
        }
      ],
      "payable": false,
      "stateMutability": "nonpayable",
      "type": "constructor"
    },
    {
      "payable": true,
      "stateMutability": "payable",
      "type": "fallback"
    },
    {
      "anonymous": false,
      "inputs": [
        {
          "indexed": true,
          "name": "who",
          "type": "address"
        },
        {
          "indexed": false,
          "name": "price",
          "type": "uint256"
        },
        {
          "indexed": false,
          "name": "spent",
          "type": "uint256"
        },
        {
          "indexed": false,
          "name": "refund",
          "type": "uint256"
        }
      ],
      "name": "Buyin",
      "type": "event"
    },
    {
      "anonymous": false,
      "inputs": [
        {
          "indexed": false,
          "name": "price",
          "type": "uint256"
        }
      ],
      "name": "Ended",
      "type": "event"
    },
    {
      "anonymous": false,
      "inputs": [
        {
          "indexed": true,
          "name": "who",
          "type": "address"
        },
        {
          "indexed": false,
          "name": "tokens",
          "type": "uint256"
        }
      ],
      "name": "Finalised",
      "type": "event"
    },
    {
      "anonymous": false,
      "inputs": [],
      "name": "Retired",
      "type": "event"
    },
    {
      "constant": false,
      "inputs": [
        {
          "name": "_who",
          "type": "address"
        }
      ],
      "name": "finalise",
      "outputs": [],
      "payable": false,
      "stateMutability": "nonpayable",
      "type": "function"
    },
    {
      "constant": false,
      "inputs": [
        {
          "name": "_halted",
          "type": "bool"
        }
      ],
      "name": "setHalted",
      "outputs": [],
      "payable": false,
      "stateMutability": "nonpayable",
      "type": "function"
    },
    {
      "constant": false,
      "inputs": [],
      "name": "drain",
      "outputs": [],
      "payable": false,
      "stateMutability": "nonpayable",
      "type": "function"
    },
    {
      "constant": false,
      "inputs": [],
      "name": "kill",
      "outputs": [],
      "payable": false,
      "stateMutability": "nonpayable",
      "type": "function"
    },
    {
      "constant": true,
      "inputs": [],
      "name": "currentPrice",
      "outputs": [
        {
          "name": "weiPerToken",
          "type": "uint256"
        }
      ],
      "payable": false,
      "stateMutability": "view",
      "type": "function"
    },
    {
      "constant": true,
      "inputs": [],
      "name": "tokensAvailable",
      "outputs": [
        {
          "name": "tokens",
          "type": "uint256"
        }
      ],
      "payable": false,
      "stateMutability": "view",
      "type": "function"
    },
    {
      "constant": true,
      "inputs": [],
      "name": "maxPurchase",
      "outputs": [
        {
          "name": "spend",
          "type": "uint256"
        }
      ],
      "payable": false,
      "stateMutability": "view",
      "type": "function"
    },
    {
      "constant": true,
      "inputs": [],
      "name": "isActive",
      "outputs": [
        {
          "name": "",
          "type": "bool"
        }
      ],
      "payable": false,
      "stateMutability": "view",
      "type": "function"
    },
    {
      "constant": true,
      "inputs": [],
      "name": "allFinalised",
      "outputs": [
        {
          "name": "",
          "type": "bool"
        }
      ],
      "payable": false,
      "stateMutability": "view",
      "type": "function"
    }
  ],
  "bytecode": "0x606060405260006001556000600255341561001957600080fd5b604051610100806115168339810160405280805190602001909190805190602001909190805190602001909190805190602001909190805190602001909190805190602001909190805190602001909190805190602001909190505087600560016101000a81548173ffffffffffffffffffffffffffffffffffffffff021916908373ffffffffffffffffffffffffffffffffffffffff16021790555086600660006101000a81548173ffffffffffffffffffffffffffffffffffffffff021916908373ffffffffffffffffffffffffffffffffffffffff16021790555085600760006101000a81548173ffffffffffffffffffffffffffffffffffffffff021916908373ffffffffffffffffffffffffffffffffffffffff16021790555084600860006101000a81548173ffffffffffffffffffffffffffffffffffffffff021916908373ffffffffffffffffffffffffffffffffffffffff1602179055508360098190555082600a8190555081600b8190555080600c81905550600b54600a548115156101a457fe5b04600954016003819055505050505050505050611350806101c66000396000f300606060405260043610610149576000357c0100000000000000000000000000000000000000000000000000000000900463ffffffff16806309e69ede1461075a578063120c7efd146107a757806322f3e2d4146107fc5780633197cbb614610829578063330c3fe51461085257806341c0e1b51461088b57806342193473146108a05780634ed767a1146108c95780634ee4c374146108f257806355a373d61461091b57806360659a921461097057806361d027b31461099957806388149fb9146109ee578063977b055b14610a175780639890220b14610a405780639d1b464a14610a55578063a3c2c46214610a7e578063b868723e14610aa7578063b9b8af0b14610ad0578063b9dcde1014610afd578063d86d470714610b26578063dcc279c814610b4f578063dd54291b14610b74578063f450d53a14610b9d578063f851a44014610bca575b6000806000806000806000600560009054906101000a900460ff16151561074c57610172610c1f565b1561074257662386f26fc100003410151561073857600560019054906101000a900473ffffffffffffffffffffffffffffffffffffffff1673ffffffffffffffffffffffffffffffffffffffff1663cc1d4c02336000604051602001526040518263ffffffff167c0100000000000000000000000000000000000000000000000000000000028152600401808273ffffffffffffffffffffffffffffffffffffffff1673ffffffffffffffffffffffffffffffffffffffff168152602001915050602060405180830381600087803b151561024c57600080fd5b6102c65a03f1151561025d57600080fd5b505050604051805190501561072e57670de0b6b3a764000034101561045d57610284610c39565b9650863481151561029157fe5b049550600094503493506102a3610c65565b86111561030857866102b3610c65565b87030294503373ffffffffffffffffffffffffffffffffffffffff166108fc869081150290604051600060405180830381858888f1935050505015156102f857600080fd5b610300610c65565b955084840393505b600760009054906101000a900473ffffffffffffffffffffffffffffffffffffffff1673ffffffffffffffffffffffffffffffffffffffff166108fc859081150290604051600060405180830381858888f19350505050151561036a57600080fd5b836000803373ffffffffffffffffffffffffffffffffffffffff1673ffffffffffffffffffffffffffffffffffffffff1681526020019081526020016000206000828254019250508190555083600160008282540192505081905550600c546001548115156103d557fe5b04925082600a54039150600b54828115156103ec57fe5b04905080600954016003819055503373ffffffffffffffffffffffffffffffffffffffff167f332ff6f9deafa8e3394664e234c5b6ecd51769ea7a7170a2bf25fa8687cf620e88868860405180848152602001838152602001828152602001935050505060405180910390a2610729565b600560019054906101000a900473ffffffffffffffffffffffffffffffffffffffff1673ffffffffffffffffffffffffffffffffffffffff16632ffbd271336000604051602001526040518263ffffffff167c0100000000000000000000000000000000000000000000000000000000028152600401808273ffffffffffffffffffffffffffffffffffffffff1673ffffffffffffffffffffffffffffffffffffffff168152602001915050602060405180830381600087803b151561052257600080fd5b6102c65a03f1151561053357600080fd5b50505060405180519050156107235761054a610c39565b9650863481151561055757fe5b04955060009450349350610569610c65565b8611156105ce5786610579610c65565b87030294503373ffffffffffffffffffffffffffffffffffffffff166108fc869081150290604051600060405180830381858888f1935050505015156105be57600080fd5b6105c6610c65565b955084840393505b600760009054906101000a900473ffffffffffffffffffffffffffffffffffffffff1673ffffffffffffffffffffffffffffffffffffffff166108fc859081150290604051600060405180830381858888f19350505050151561063057600080fd5b836000803373ffffffffffffffffffffffffffffffffffffffff1673ffffffffffffffffffffffffffffffffffffffff1681526020019081526020016000206000828254019250508190555083600160008282540192505081905550600c5460015481151561069b57fe5b04925082600a54039150600b54828115156106b257fe5b04905080600954016003819055503373ffffffffffffffffffffffffffffffffffffffff167f332ff6f9deafa8e3394664e234c5b6ecd51769ea7a7170a2bf25fa8687cf620e88868860405180848152602001838152602001828152602001935050505060405180910390a2610728565b600080fd5b5b610733565b600080fd5b61073d565b600080fd5b610747565b600080fd5b610751565b600080fd5b50505050505050005b341561076557600080fd5b610791600480803573ffffffffffffffffffffffffffffffffffffffff16906020019091905050610c9d565b6040518082815260200191505060405180910390f35b34156107b257600080fd5b6107ba610cb5565b604051808273ffffffffffffffffffffffffffffffffffffffff1673ffffffffffffffffffffffffffffffffffffffff16815260200191505060405180910390f35b341561080757600080fd5b61080f610c1f565b604051808215151515815260200191505060405180910390f35b341561083457600080fd5b61083c610cdb565b6040518082815260200191505060405180910390f35b341561085d57600080fd5b610889600480803573ffffffffffffffffffffffffffffffffffffffff16906020019091905050610ce1565b005b341561089657600080fd5b61089e61106e565b005b34156108ab57600080fd5b6108b36110bb565b6040518082815260200191505060405180910390f35b34156108d457600080fd5b6108dc6110c6565b6040518082815260200191505060405180910390f35b34156108fd57600080fd5b6109056110cc565b6040518082815260200191505060405180910390f35b341561092657600080fd5b61092e6110d2565b604051808273ffffffffffffffffffffffffffffffffffffffff1673ffffffffffffffffffffffffffffffffffffffff16815260200191505060405180910390f35b341561097b57600080fd5b610983610c65565b6040518082815260200191505060405180910390f35b34156109a457600080fd5b6109ac6110f8565b604051808273ffffffffffffffffffffffffffffffffffffffff1673ffffffffffffffffffffffffffffffffffffffff16815260200191505060405180910390f35b34156109f957600080fd5b610a0161111e565b6040518082815260200191505060405180910390f35b3415610a2257600080fd5b610a2a611124565b6040518082815260200191505060405180910390f35b3415610a4b57600080fd5b610a53611153565b005b3415610a6057600080fd5b610a68610c39565b6040518082815260200191505060405180910390f35b3415610a8957600080fd5b610a9161122e565b6040518082815260200191505060405180910390f35b3415610ab257600080fd5b610aba611234565b6040518082815260200191505060405180910390f35b3415610adb57600080fd5b610ae361123a565b604051808215151515815260200191505060405180910390f35b3415610b0857600080fd5b610b1061124d565b6040518082815260200191505060405180910390f35b3415610b3157600080fd5b610b39611253565b6040518082815260200191505060405180910390f35b3415610b5a57600080fd5b610b726004808035151590602001909190505061125f565b005b3415610b7f57600080fd5b610b876112dc565b6040518082815260200191505060405180910390f35b3415610ba857600080fd5b610bb06112e2565b604051808215151515815260200191505060405180910390f35b3415610bd557600080fd5b610bdd6112fe565b604051808273ffffffffffffffffffffffffffffffffffffffff1673ffffffffffffffffffffffffffffffffffffffff16815260200191505060405180910390f35b60006009544210158015610c34575060035442105b905090565b6000610c43610c1f565b1515610c525760009050610c62565b600b54600954420302600a540390505b90565b6000610c6f610c1f565b1515610c7e5760009050610c9a565b610c86610c39565b600154811515610c9257fe5b04600c540390505b90565b60006020528060005260406000206000915090505481565b600560019054906101000a900473ffffffffffffffffffffffffffffffffffffffff1681565b60035481565b600080600560009054906101000a900460ff161515611064576003544210151561105a578260008060008373ffffffffffffffffffffffffffffffffffffffff1673ffffffffffffffffffffffffffffffffffffffff1681526020019081526020016000205414151561104f5760006004541415610da957600c54600154811515610d6857fe5b046004819055507f601095663bda08ac0f932087ef2eb08e42e4bcd1927f3a8d9500f6ad2c5aef906004546040518082815260200191505060405180910390a15b6004546000808673ffffffffffffffffffffffffffffffffffffffff1673ffffffffffffffffffffffffffffffffffffffff16815260200190815260200160002054811515610df457fe5b04925082600454026000808673ffffffffffffffffffffffffffffffffffffffff1673ffffffffffffffffffffffffffffffffffffffff168152602001908152602001600020540391506000808573ffffffffffffffffffffffffffffffffffffffff1673ffffffffffffffffffffffffffffffffffffffff1681526020019081526020016000205460026000828254019250508190555060008060008673ffffffffffffffffffffffffffffffffffffffff1673ffffffffffffffffffffffffffffffffffffffff16815260200190815260200160002081905550600660009054906101000a900473ffffffffffffffffffffffffffffffffffffffff1673ffffffffffffffffffffffffffffffffffffffff1663a9059cbb85856000604051602001526040518363ffffffff167c0100000000000000000000000000000000000000000000000000000000028152600401808373ffffffffffffffffffffffffffffffffffffffff1673ffffffffffffffffffffffffffffffffffffffff16815260200182815260200192505050602060405180830381600087803b1515610f9d57600080fd5b6102c65a03f11515610fae57600080fd5b505050604051805190501515610fc357600080fd5b8373ffffffffffffffffffffffffffffffffffffffff167fd8a5cca1cc817d045ce0d6e405348bae3f2558baca99f954815924542f8e5164846040518082815260200191505060405180910390a2600154600254141561104a577fc15f68f0a72806ff3f8bf2435385a67c4c22413f1c7931ef7bcea718e6ffcf0360405160405180910390a15b611054565b600080fd5b5061105f565b600080fd5b611069565b600080fd5b505050565b6110766112e2565b156110b657600860009054906101000a900473ffffffffffffffffffffffffffffffffffffffff1673ffffffffffffffffffffffffffffffffffffffff16ff5b600080fd5b662386f26fc1000081565b60025481565b600b5481565b600660009054906101000a900473ffffffffffffffffffffffffffffffffffffffff1681565b600760009054906101000a900473ffffffffffffffffffffffffffffffffffffffff1681565b60095481565b600061112e610c1f565b151561113d5760009050611150565b600154611148610c39565b600c54020390505b90565b600860009054906101000a900473ffffffffffffffffffffffffffffffffffffffff1673ffffffffffffffffffffffffffffffffffffffff163373ffffffffffffffffffffffffffffffffffffffff16141561122757600760009054906101000a900473ffffffffffffffffffffffffffffffffffffffff1673ffffffffffffffffffffffffffffffffffffffff166108fc3073ffffffffffffffffffffffffffffffffffffffff16319081150290604051600060405180830381858888f19350505050151561122257600080fd5b61122c565b600080fd5b565b60015481565b60045481565b600560009054906101000a900460ff1681565b600a5481565b670de0b6b3a764000081565b600860009054906101000a900473ffffffffffffffffffffffffffffffffffffffff1673ffffffffffffffffffffffffffffffffffffffff163373ffffffffffffffffffffffffffffffffffffffff1614156112d45780600560006101000a81548160ff0219169083151502179055506112d9565b600080fd5b50565b600c5481565b600060035442101580156112f95750600254600154145b905090565b600860009054906101000a900473ffffffffffffffffffffffffffffffffffffffff16815600a165627a7a72305820850e8f0647830d4f6e715ef9135b0901f98f69430314719a1dd590802b37134d0029",
  "source": "//! The dutch-auction contract.\r\n//!\r\n//! Copyright 2017 Gavin Wood, Parity Technologies Ltd.\r\n//!\r\n//! Licensed under the Apache License, Version 2.0 (the \"License\");\r\n//! you may not use this file except in compliance with the License.\r\n//! You may obtain a copy of the License at\r\n//!\r\n//!     http://www.apache.org/licenses/LICENSE-2.0\r\n//!\r\n//! Unless required by applicable law or agreed to in writing, software\r\n//! distributed under the License is distributed on an \"AS IS\" BASIS,\r\n//! WITHOUT WARRANTIES OR CONDITIONS OF ANY KIND, either express or implied.\r\n//! See the License for the specific language governing permissions and\r\n//! limitations under the License.\r\n\r\npragma solidity ^0.4.7;\r\n\r\nimport \"./SimpleCertifier.sol\";\r\n\r\n/// Stripped down ERC20 standard token interface.\r\ncontract Token {\r\n\tfunction transfer(address _to, uint256 _value) returns (bool success);\r\n}\r\n\r\n/// Simple Dutch Auction contract. Price starts high and monotonically decreases\r\n/// until all tokens are sold at the current price with currently received\r\n/// funds.\r\ncontract DutchAuction {\r\n\t/// Someone bought in at a particular max-price.\r\n\tevent Buyin(address indexed who, uint price, uint spent, uint refund);\r\n\r\n\t/// The sale just ended with the current price.\r\n\tevent Ended(uint price);\r\n\r\n\t/// Finalised the purchase for `who`, who has been given `tokens` tokens and\r\n\t/// refunded `refund` (which is the remainder since only a whole number of\r\n\t/// tokens may be purchased).\r\n\tevent Finalised(address indexed who, uint tokens);\r\n\r\n\t/// Auction is over. All accounts finalised.\r\n\tevent Retired();\r\n\r\n\t/// Simple constructor.\r\n\tfunction DutchAuction(address _certifierContract, address _tokenContract, address _treasury, address _admin, uint _beginTime, uint _beginPrice, uint _saleSpeed, uint _tokenCap) {\r\n\t\tcertifier = SimpleCertifier(_certifierContract);\r\n\t\ttokenContract = Token(_tokenContract);\r\n\t\ttreasury = _treasury;\r\n\t\tadmin = _admin;\r\n\t\tbeginTime = _beginTime;\r\n\t\tbeginPrice = _beginPrice;\r\n\t\tsaleSpeed = _saleSpeed;\r\n\t\ttokenCap = _tokenCap;\r\n\t\tendTime = beginTime + beginPrice / saleSpeed;\r\n\t}\r\n\r\n\t/// Buyin function. Throws if the sale is not active. May refund some of the\r\n\t/// funds if they would end the sale.\r\n\tfunction()\r\n\t\tpayable\r\n\t\twhen_not_halted\r\n\t\twhen_active\r\n\t\tavoid_dust\r\n\t\tonly_certified\r\n\t\tonly_limited_amount_or_highly_certified\r\n\t{\r\n\t\tuint price = currentPrice();\r\n\t\tuint tokens = msg.value / price;\r\n\t\tuint refund = 0;\r\n\t\tuint accepted = msg.value;\r\n\r\n\t\t// if we've asked for too many, send back the extra.\r\n\t\tif (tokens > tokensAvailable()) {\r\n\t\t\trefund = (tokens - tokensAvailable()) * price;\r\n\t\t\tif (!msg.sender.send(refund)) throw;\r\n\t\t\ttokens = tokensAvailable();\r\n\t\t\taccepted -= refund;\r\n\t\t}\r\n\r\n\t\t// send rest to treasury\r\n\t\tif (!treasury.send(accepted)) throw;\r\n\r\n\t\t// record the acceptance.\r\n\t\tparticipants[msg.sender] += accepted;\r\n\t\ttotalReceived += accepted;\r\n\t\tuint targetPrice = totalReceived / tokenCap;\r\n\t\tuint salePriceDrop = beginPrice - targetPrice;\r\n\t\tuint saleDuration = salePriceDrop / saleSpeed;\r\n\t\tendTime = beginTime + saleDuration;\r\n\t\tBuyin(msg.sender, price, accepted, refund);\r\n\t}\r\n\r\n\t/// Mint tokens for a particular participant.\r\n\tfunction finalise(address _who)\r\n\t\twhen_not_halted\r\n\t\twhen_ended\r\n\t\tonly_participants(_who)\r\n\t{\r\n\t\t// end the auction if we're the first one to finalise.\r\n\t\tif (endPrice == 0) {\r\n\t\t\tendPrice = totalReceived / tokenCap;\r\n\t\t\tEnded(endPrice);\r\n\t\t}\r\n\r\n\t\t// enact the purchase.\r\n\t\tuint tokens = participants[_who] / endPrice;\r\n\t\tuint refund = participants[_who] - endPrice * tokens;\r\n\t\ttotalFinalised += participants[_who];\r\n\t\tparticipants[_who] = 0;\r\n\t\tif (!tokenContract.transfer(_who, tokens)) throw;\r\n\r\n\t\tFinalised(_who, tokens);\r\n\r\n\t\tif (totalFinalised == totalReceived) {\r\n\t\t\tRetired();\r\n\t\t}\r\n\t}\r\n\r\n\t/// Emergency function to pause buy-in and finalisation.\r\n\tfunction setHalted(bool _halted) only_admin { halted = _halted; }\r\n\r\n\t/// Emergency function to drain the contract of any funds.\r\n\tfunction drain() only_admin { if (!treasury.send(this.balance)) throw; }\r\n\r\n\t/// Kill this contract once the sale is finished.\r\n\tfunction kill() when_all_finalised { suicide(admin); }\r\n\r\n\t/// The current price for a single token. If a buyin happens now, this is\r\n\t/// the highest price per token that the buyer will pay.\r\n\tfunction currentPrice() constant returns (uint weiPerToken) {\r\n\t\tif (!isActive()) return 0;\r\n\t\treturn beginPrice - (now - beginTime) * saleSpeed;\r\n\t}\r\n\r\n\t/// Returns the tokens available for purchase right now.\r\n\tfunction tokensAvailable() constant returns (uint tokens) {\r\n\t\tif (!isActive()) return 0;\r\n\t\treturn tokenCap - totalReceived / currentPrice();\r\n\t}\r\n\r\n\t/// The largest purchase than can be made at present.\r\n\tfunction maxPurchase() constant returns (uint spend) {\r\n\t\tif (!isActive()) return 0;\r\n\t\treturn tokenCap * currentPrice() - totalReceived;\r\n\t}\r\n\r\n\t/// True if the sale is ongoing.\r\n\tfunction isActive() constant returns (bool) { return now >= beginTime && now < endTime; }\r\n\r\n\t/// True if all participants have finalised.\r\n\tfunction allFinalised() constant returns (bool) { return now >= endTime && totalReceived == totalFinalised; }\r\n\r\n\t/// Ensure the sale is ongoing.\r\n\tmodifier when_active { if (isActive()) _; else throw; }\r\n\r\n\t/// Ensure the sale is ended.\r\n\tmodifier when_ended { if (now >= endTime) _; else throw; }\r\n\r\n\t/// Ensure we're not halted.\r\n\tmodifier when_not_halted { if (!halted) _; else throw; }\r\n\r\n\t/// Ensure all participants have finalised.\r\n\tmodifier when_all_finalised { if (allFinalised()) _; else throw; }\r\n\r\n\t/// Ensure the sender sent a sensible amount of ether.\r\n\tmodifier avoid_dust { if (msg.value >= DUST_LIMIT) _; else throw; }\r\n\r\n\t/// Ensure `_who` is a participant.\r\n\tmodifier only_participants(address _who) { if (participants[_who] != 0) _; else throw; }\r\n\r\n\t/// Ensure sender is admin.\r\n\tmodifier only_admin { if (msg.sender == admin) _; else throw; }\r\n\r\n\t/// Ensure sender is certified.\r\n\tmodifier only_certified { if (certifier.certified(msg.sender)) _; else throw; }\r\n\r\n\t/// Ensure sender is certified for that amount.\r\n\tmodifier only_limited_amount_or_highly_certified {\r\n\t\tif (msg.value < HIGHLY_CERTIFIED_LIMIT) {\r\n\t\t\t_;\r\n\t\t} else if (certifier.highlyCertified(msg.sender)) {\r\n\t\t\t_;\r\n\t\t} else {\r\n\t\t\tthrow;\r\n\t\t}\r\n\t}\r\n\r\n\t// State:\r\n\r\n\t/// The auction participants.\r\n\tmapping (address => uint) public participants;\r\n\r\n\t/// Total amount of ether received.\r\n\tuint public totalReceived = 0;\r\n\r\n\t/// Total amount of ether which has been finalised.\r\n\tuint public totalFinalised = 0;\r\n\r\n\t/// The current end time. Gets updated when new funds are received.\r\n\tuint public endTime;\r\n\r\n\t/// The price per token; only valid once the sale has ended and at least one\r\n\t/// participant has finalised.\r\n\tuint public endPrice;\r\n\r\n\t/// Must be false for any public function to be called.\r\n\tbool public halted;\r\n\r\n\t// Constants after constructor:\r\n\r\n\t/// The certifier.\r\n\tSimpleCertifier public certifier;\r\n\r\n\t/// The tokens contract.\r\n\tToken public tokenContract;\r\n\r\n\t/// The treasury address; where all the Ether goes.\r\n\taddress public treasury;\r\n\r\n\t/// The admin address; auction can be paused or halted at any time by this.\r\n\taddress public admin;\r\n\r\n\t/// The time at which the sale begins.\r\n\tuint public beginTime;\r\n\r\n\t/// Price at which the sale begins.\r\n\tuint public beginPrice;\r\n\r\n\t/// The speed at which the price reduces, in Wei per second.\r\n\tuint public saleSpeed;\r\n\r\n\t/// Maximum amount of tokens to mint. Once totalSale / currentPrice is\r\n\t/// greater than this, the sale ends.\r\n\tuint public tokenCap;\r\n\r\n\t// Static constants:\r\n\r\n\t/// Anything less than this is considered dust and cannot be used to buy in.\r\n\tuint constant public DUST_LIMIT = 10 finney;\r\n\r\n\t// Constant values for the different levels of certification\r\n\tuint constant public HIGHLY_CERTIFIED_LIMIT = 1 ether;\r\n\r\n}\r\n",
  "sourcePath": "C:\\Users\\cir\\Workspace\\diamondcoin\\ti8m-smart-contracts\\contracts\\DutchAuction.sol",
  "compiler": {
    "name": "solc",
    "version": "0.4.19+commit.c4cbbb05.Emscripten.clang"
  },
  "schemaVersion": "2.0.0",
  "updatedAt": "2018-03-14T10:22:30.366Z"
}