{
  "contractName": "DutchAuction",
  "abi": [
    {
      "constant": true,
      "inputs": [
        {
          "name": "",
          "type": "address"
        }
      ],
      "name": "participants",
      "outputs": [
        {
          "name": "",
          "type": "uint256"
        }
      ],
      "payable": false,
      "stateMutability": "view",
      "type": "function"
    },
    {
      "constant": true,
      "inputs": [],
      "name": "certifier",
      "outputs": [
        {
          "name": "",
          "type": "address"
        }
      ],
      "payable": false,
      "stateMutability": "view",
      "type": "function"
    },
    {
      "constant": true,
      "inputs": [],
      "name": "endTime",
      "outputs": [
        {
          "name": "",
          "type": "uint256"
        }
      ],
      "payable": false,
      "stateMutability": "view",
      "type": "function"
    },
    {
      "constant": true,
      "inputs": [],
      "name": "DUST_LIMIT",
      "outputs": [
        {
          "name": "",
          "type": "uint256"
        }
      ],
      "payable": false,
      "stateMutability": "view",
      "type": "function"
    },
    {
      "constant": true,
      "inputs": [],
      "name": "totalFinalised",
      "outputs": [
        {
          "name": "",
          "type": "uint256"
        }
      ],
      "payable": false,
      "stateMutability": "view",
      "type": "function"
    },
    {
      "constant": true,
      "inputs": [],
      "name": "saleSpeed",
      "outputs": [
        {
          "name": "",
          "type": "uint256"
        }
      ],
      "payable": false,
      "stateMutability": "view",
      "type": "function"
    },
    {
      "constant": true,
      "inputs": [],
      "name": "tokenContract",
      "outputs": [
        {
          "name": "",
          "type": "address"
        }
      ],
      "payable": false,
      "stateMutability": "view",
      "type": "function"
    },
    {
      "constant": true,
      "inputs": [],
      "name": "treasury",
      "outputs": [
        {
          "name": "",
          "type": "address"
        }
      ],
      "payable": false,
      "stateMutability": "view",
      "type": "function"
    },
    {
      "constant": true,
      "inputs": [],
      "name": "beginTime",
      "outputs": [
        {
          "name": "",
          "type": "uint256"
        }
      ],
      "payable": false,
      "stateMutability": "view",
      "type": "function"
    },
    {
      "constant": true,
      "inputs": [],
      "name": "totalReceived",
      "outputs": [
        {
          "name": "",
          "type": "uint256"
        }
      ],
      "payable": false,
      "stateMutability": "view",
      "type": "function"
    },
    {
      "constant": true,
      "inputs": [],
      "name": "endPrice",
      "outputs": [
        {
          "name": "",
          "type": "uint256"
        }
      ],
      "payable": false,
      "stateMutability": "view",
      "type": "function"
    },
    {
      "constant": true,
      "inputs": [],
      "name": "halted",
      "outputs": [
        {
          "name": "",
          "type": "bool"
        }
      ],
      "payable": false,
      "stateMutability": "view",
      "type": "function"
    },
    {
      "constant": true,
      "inputs": [],
      "name": "beginPrice",
      "outputs": [
        {
          "name": "",
          "type": "uint256"
        }
      ],
      "payable": false,
      "stateMutability": "view",
      "type": "function"
    },
    {
      "constant": true,
      "inputs": [],
      "name": "HIGHLY_CERTIFIED_LIMIT",
      "outputs": [
        {
          "name": "",
          "type": "uint256"
        }
      ],
      "payable": false,
      "stateMutability": "view",
      "type": "function"
    },
    {
      "constant": true,
      "inputs": [],
      "name": "tokenCap",
      "outputs": [
        {
          "name": "",
          "type": "uint256"
        }
      ],
      "payable": false,
      "stateMutability": "view",
      "type": "function"
    },
    {
      "constant": true,
      "inputs": [],
      "name": "admin",
      "outputs": [
        {
          "name": "",
          "type": "address"
        }
      ],
      "payable": false,
      "stateMutability": "view",
      "type": "function"
    },
    {
      "inputs": [
        {
          "name": "_certifierContract",
          "type": "address"
        },
        {
          "name": "_tokenContract",
          "type": "address"
        },
        {
          "name": "_treasury",
          "type": "address"
        },
        {
          "name": "_admin",
          "type": "address"
        },
        {
          "name": "_beginTime",
          "type": "uint256"
        },
        {
          "name": "_beginPrice",
          "type": "uint256"
        },
        {
          "name": "_saleSpeed",
          "type": "uint256"
        },
        {
          "name": "_tokenCap",
          "type": "uint256"
        }
      ],
      "payable": false,
      "stateMutability": "nonpayable",
      "type": "constructor"
    },
    {
      "payable": true,
      "stateMutability": "payable",
      "type": "fallback"
    },
    {
      "anonymous": false,
      "inputs": [
        {
          "indexed": true,
          "name": "who",
          "type": "address"
        },
        {
          "indexed": false,
          "name": "price",
          "type": "uint256"
        },
        {
          "indexed": false,
          "name": "spent",
          "type": "uint256"
        },
        {
          "indexed": false,
          "name": "refund",
          "type": "uint256"
        }
      ],
      "name": "Buyin",
      "type": "event"
    },
    {
      "anonymous": false,
      "inputs": [
        {
          "indexed": false,
          "name": "price",
          "type": "uint256"
        }
      ],
      "name": "Ended",
      "type": "event"
    },
    {
      "anonymous": false,
      "inputs": [
        {
          "indexed": true,
          "name": "who",
          "type": "address"
        },
        {
          "indexed": false,
          "name": "tokens",
          "type": "uint256"
        }
      ],
      "name": "Finalised",
      "type": "event"
    },
    {
      "anonymous": false,
      "inputs": [],
      "name": "Retired",
      "type": "event"
    },
    {
      "constant": false,
      "inputs": [
        {
          "name": "_who",
          "type": "address"
        }
      ],
      "name": "finalise",
      "outputs": [],
      "payable": false,
      "stateMutability": "nonpayable",
      "type": "function"
    },
    {
      "constant": false,
      "inputs": [
        {
          "name": "_halted",
          "type": "bool"
        }
      ],
      "name": "setHalted",
      "outputs": [],
      "payable": false,
      "stateMutability": "nonpayable",
      "type": "function"
    },
    {
      "constant": false,
      "inputs": [],
      "name": "drain",
      "outputs": [],
      "payable": false,
      "stateMutability": "nonpayable",
      "type": "function"
    },
    {
      "constant": false,
      "inputs": [],
      "name": "kill",
      "outputs": [],
      "payable": false,
      "stateMutability": "nonpayable",
      "type": "function"
    },
    {
      "constant": true,
      "inputs": [],
      "name": "currentPrice",
      "outputs": [
        {
          "name": "weiPerToken",
          "type": "uint256"
        }
      ],
      "payable": false,
      "stateMutability": "view",
      "type": "function"
    },
    {
      "constant": true,
      "inputs": [],
      "name": "tokensAvailable",
      "outputs": [
        {
          "name": "tokens",
          "type": "uint256"
        }
      ],
      "payable": false,
      "stateMutability": "view",
      "type": "function"
    },
    {
      "constant": true,
      "inputs": [],
      "name": "maxPurchase",
      "outputs": [
        {
          "name": "spend",
          "type": "uint256"
        }
      ],
      "payable": false,
      "stateMutability": "view",
      "type": "function"
    },
    {
      "constant": true,
      "inputs": [],
      "name": "isActive",
      "outputs": [
        {
          "name": "",
          "type": "bool"
        }
      ],
      "payable": false,
      "stateMutability": "view",
      "type": "function"
    },
    {
      "constant": true,
      "inputs": [],
      "name": "allFinalised",
      "outputs": [
        {
          "name": "",
          "type": "bool"
        }
      ],
      "payable": false,
      "stateMutability": "view",
      "type": "function"
    }
  ],
  "bytecode": "0x606060405260006001556000600255341561001957600080fd5b604051610100806117bc8339810160405280805190602001909190805190602001909190805190602001909190805190602001909190805190602001909190805190602001909190805190602001909190805190602001909190505087600560016101000a81548173ffffffffffffffffffffffffffffffffffffffff021916908373ffffffffffffffffffffffffffffffffffffffff16021790555086600660006101000a81548173ffffffffffffffffffffffffffffffffffffffff021916908373ffffffffffffffffffffffffffffffffffffffff16021790555085600760006101000a81548173ffffffffffffffffffffffffffffffffffffffff021916908373ffffffffffffffffffffffffffffffffffffffff16021790555084600860006101000a81548173ffffffffffffffffffffffffffffffffffffffff021916908373ffffffffffffffffffffffffffffffffffffffff1602179055508360098190555082600a8190555081600b8190555080600c81905550600b54600a548115156101a457fe5b046009540160038190555050505050505050506115f6806101c66000396000f300606060405260043610610149576000357c0100000000000000000000000000000000000000000000000000000000900463ffffffff16806309e69ede14610a5c578063120c7efd14610aa957806322f3e2d414610afe5780633197cbb614610b2b578063330c3fe514610b5457806341c0e1b514610b8d5780634219347314610ba25780634ed767a114610bcb5780634ee4c37414610bf457806355a373d614610c1d57806360659a9214610c7257806361d027b314610c9b57806388149fb914610cf0578063977b055b14610d195780639890220b14610d425780639d1b464a14610d57578063a3c2c46214610d80578063b868723e14610da9578063b9b8af0b14610dd2578063b9dcde1014610dff578063d86d470714610e28578063dcc279c814610e51578063dd54291b14610e76578063f450d53a14610e9f578063f851a44014610ecc575b6000806000806000806000600560009054906101000a900460ff1615151561017057600080fd5b610178610f21565b151561018357600080fd5b662386f26fc10000341015151561019957600080fd5b600060038111156101a657fe5b600560019054906101000a900473ffffffffffffffffffffffffffffffffffffffff1673ffffffffffffffffffffffffffffffffffffffff166350c8a051336000604051602001526040518263ffffffff167c0100000000000000000000000000000000000000000000000000000000028152600401808273ffffffffffffffffffffffffffffffffffffffff1673ffffffffffffffffffffffffffffffffffffffff168152602001915050602060405180830381600087803b151561026b57600080fd5b6102c65a03f1151561027c57600080fd5b50505060405180519050600381111561029157fe5b1415151561029e57600080fd5b670de0b6b3a764000034101561048f576102b6610f3b565b965086348115156102c357fe5b049550600094503493506102d5610f67565b86111561033a57866102e5610f67565b87030294503373ffffffffffffffffffffffffffffffffffffffff166108fc869081150290604051600060405180830381858888f19350505050151561032a57600080fd5b610332610f67565b955084840393505b600760009054906101000a900473ffffffffffffffffffffffffffffffffffffffff1673ffffffffffffffffffffffffffffffffffffffff166108fc859081150290604051600060405180830381858888f19350505050151561039c57600080fd5b836000803373ffffffffffffffffffffffffffffffffffffffff1673ffffffffffffffffffffffffffffffffffffffff1681526020019081526020016000206000828254019250508190555083600160008282540192505081905550600c5460015481151561040757fe5b04925082600a54039150600b548281151561041e57fe5b04905080600954016003819055503373ffffffffffffffffffffffffffffffffffffffff167f332ff6f9deafa8e3394664e234c5b6ecd51769ea7a7170a2bf25fa8687cf620e88868860405180848152602001838152602001828152602001935050505060405180910390a2610a53565b6002600381111561049c57fe5b600560019054906101000a900473ffffffffffffffffffffffffffffffffffffffff1673ffffffffffffffffffffffffffffffffffffffff166350c8a051336000604051602001526040518263ffffffff167c0100000000000000000000000000000000000000000000000000000000028152600401808273ffffffffffffffffffffffffffffffffffffffff1673ffffffffffffffffffffffffffffffffffffffff168152602001915050602060405180830381600087803b151561056157600080fd5b6102c65a03f1151561057257600080fd5b50505060405180519050600381111561058757fe5b141561076e57610595610f3b565b965086348115156105a257fe5b049550600094503493506105b4610f67565b86111561061957866105c4610f67565b87030294503373ffffffffffffffffffffffffffffffffffffffff166108fc869081150290604051600060405180830381858888f19350505050151561060957600080fd5b610611610f67565b955084840393505b600760009054906101000a900473ffffffffffffffffffffffffffffffffffffffff1673ffffffffffffffffffffffffffffffffffffffff166108fc859081150290604051600060405180830381858888f19350505050151561067b57600080fd5b836000803373ffffffffffffffffffffffffffffffffffffffff1673ffffffffffffffffffffffffffffffffffffffff1681526020019081526020016000206000828254019250508190555083600160008282540192505081905550600c546001548115156106e657fe5b04925082600a54039150600b54828115156106fd57fe5b04905080600954016003819055503373ffffffffffffffffffffffffffffffffffffffff167f332ff6f9deafa8e3394664e234c5b6ecd51769ea7a7170a2bf25fa8687cf620e88868860405180848152602001838152602001828152602001935050505060405180910390a2610a52565b60038081111561077a57fe5b600560019054906101000a900473ffffffffffffffffffffffffffffffffffffffff1673ffffffffffffffffffffffffffffffffffffffff166350c8a051336000604051602001526040518263ffffffff167c0100000000000000000000000000000000000000000000000000000000028152600401808273ffffffffffffffffffffffffffffffffffffffff1673ffffffffffffffffffffffffffffffffffffffff168152602001915050602060405180830381600087803b151561083f57600080fd5b6102c65a03f1151561085057600080fd5b50505060405180519050600381111561086557fe5b1415610a4c57610873610f3b565b9650863481151561088057fe5b04955060009450349350610892610f67565b8611156108f757866108a2610f67565b87030294503373ffffffffffffffffffffffffffffffffffffffff166108fc869081150290604051600060405180830381858888f1935050505015156108e757600080fd5b6108ef610f67565b955084840393505b600760009054906101000a900473ffffffffffffffffffffffffffffffffffffffff1673ffffffffffffffffffffffffffffffffffffffff166108fc859081150290604051600060405180830381858888f19350505050151561095957600080fd5b836000803373ffffffffffffffffffffffffffffffffffffffff1673ffffffffffffffffffffffffffffffffffffffff1681526020019081526020016000206000828254019250508190555083600160008282540192505081905550600c546001548115156109c457fe5b04925082600a54039150600b54828115156109db57fe5b04905080600954016003819055503373ffffffffffffffffffffffffffffffffffffffff167f332ff6f9deafa8e3394664e234c5b6ecd51769ea7a7170a2bf25fa8687cf620e88868860405180848152602001838152602001828152602001935050505060405180910390a2610a51565b600080fd5b5b5b50505050505050005b3415610a6757600080fd5b610a93600480803573ffffffffffffffffffffffffffffffffffffffff16906020019091905050610f9f565b6040518082815260200191505060405180910390f35b3415610ab457600080fd5b610abc610fb7565b604051808273ffffffffffffffffffffffffffffffffffffffff1673ffffffffffffffffffffffffffffffffffffffff16815260200191505060405180910390f35b3415610b0957600080fd5b610b11610f21565b604051808215151515815260200191505060405180910390f35b3415610b3657600080fd5b610b3e610fdd565b6040518082815260200191505060405180910390f35b3415610b5f57600080fd5b610b8b600480803573ffffffffffffffffffffffffffffffffffffffff16906020019091905050610fe3565b005b3415610b9857600080fd5b610ba061131b565b005b3415610bad57600080fd5b610bb5611369565b6040518082815260200191505060405180910390f35b3415610bd657600080fd5b610bde611374565b6040518082815260200191505060405180910390f35b3415610bff57600080fd5b610c0761137a565b6040518082815260200191505060405180910390f35b3415610c2857600080fd5b610c30611380565b604051808273ffffffffffffffffffffffffffffffffffffffff1673ffffffffffffffffffffffffffffffffffffffff16815260200191505060405180910390f35b3415610c7d57600080fd5b610c85610f67565b6040518082815260200191505060405180910390f35b3415610ca657600080fd5b610cae6113a6565b604051808273ffffffffffffffffffffffffffffffffffffffff1673ffffffffffffffffffffffffffffffffffffffff16815260200191505060405180910390f35b3415610cfb57600080fd5b610d036113cc565b6040518082815260200191505060405180910390f35b3415610d2457600080fd5b610d2c6113d2565b6040518082815260200191505060405180910390f35b3415610d4d57600080fd5b610d55611401565b005b3415610d6257600080fd5b610d6a610f3b565b6040518082815260200191505060405180910390f35b3415610d8b57600080fd5b610d936114d8565b6040518082815260200191505060405180910390f35b3415610db457600080fd5b610dbc6114de565b6040518082815260200191505060405180910390f35b3415610ddd57600080fd5b610de56114e4565b604051808215151515815260200191505060405180910390f35b3415610e0a57600080fd5b610e126114f7565b6040518082815260200191505060405180910390f35b3415610e3357600080fd5b610e3b6114fd565b6040518082815260200191505060405180910390f35b3415610e5c57600080fd5b610e7460048080351515906020019091905050611509565b005b3415610e8157600080fd5b610e89611582565b6040518082815260200191505060405180910390f35b3415610eaa57600080fd5b610eb2611588565b604051808215151515815260200191505060405180910390f35b3415610ed757600080fd5b610edf6115a4565b604051808273ffffffffffffffffffffffffffffffffffffffff1673ffffffffffffffffffffffffffffffffffffffff16815260200191505060405180910390f35b60006009544210158015610f36575060035442105b905090565b6000610f45610f21565b1515610f545760009050610f64565b600b54600954420302600a540390505b90565b6000610f71610f21565b1515610f805760009050610f9c565b610f88610f3b565b600154811515610f9457fe5b04600c540390505b90565b60006020528060005260406000206000915090505481565b600560019054906101000a900473ffffffffffffffffffffffffffffffffffffffff1681565b60035481565b6000600560009054906101000a900460ff1615151561100157600080fd5b600354421015151561101257600080fd5b8160008060008373ffffffffffffffffffffffffffffffffffffffff1673ffffffffffffffffffffffffffffffffffffffff168152602001908152602001600020541415151561106157600080fd5b600060045414156110bc57600c5460015481151561107b57fe5b046004819055507f601095663bda08ac0f932087ef2eb08e42e4bcd1927f3a8d9500f6ad2c5aef906004546040518082815260200191505060405180910390a15b6004546000808573ffffffffffffffffffffffffffffffffffffffff1673ffffffffffffffffffffffffffffffffffffffff1681526020019081526020016000205481151561110757fe5b0491506000808473ffffffffffffffffffffffffffffffffffffffff1673ffffffffffffffffffffffffffffffffffffffff1681526020019081526020016000205460026000828254019250508190555060008060008573ffffffffffffffffffffffffffffffffffffffff1673ffffffffffffffffffffffffffffffffffffffff16815260200190815260200160002081905550600660009054906101000a900473ffffffffffffffffffffffffffffffffffffffff1673ffffffffffffffffffffffffffffffffffffffff1663a9059cbb84846000604051602001526040518363ffffffff167c0100000000000000000000000000000000000000000000000000000000028152600401808373ffffffffffffffffffffffffffffffffffffffff1673ffffffffffffffffffffffffffffffffffffffff16815260200182815260200192505050602060405180830381600087803b151561126957600080fd5b6102c65a03f1151561127a57600080fd5b50505060405180519050151561128f57600080fd5b8273ffffffffffffffffffffffffffffffffffffffff167fd8a5cca1cc817d045ce0d6e405348bae3f2558baca99f954815924542f8e5164836040518082815260200191505060405180910390a26001546002541415611316577fc15f68f0a72806ff3f8bf2435385a67c4c22413f1c7931ef7bcea718e6ffcf0360405160405180910390a15b505050565b611323611588565b151561132e57600080fd5b600860009054906101000a900473ffffffffffffffffffffffffffffffffffffffff1673ffffffffffffffffffffffffffffffffffffffff16ff5b662386f26fc1000081565b60025481565b600b5481565b600660009054906101000a900473ffffffffffffffffffffffffffffffffffffffff1681565b600760009054906101000a900473ffffffffffffffffffffffffffffffffffffffff1681565b60095481565b60006113dc610f21565b15156113eb57600090506113fe565b6001546113f6610f3b565b600c54020390505b90565b600860009054906101000a900473ffffffffffffffffffffffffffffffffffffffff1673ffffffffffffffffffffffffffffffffffffffff163373ffffffffffffffffffffffffffffffffffffffff1614151561145d57600080fd5b600760009054906101000a900473ffffffffffffffffffffffffffffffffffffffff1673ffffffffffffffffffffffffffffffffffffffff166108fc3073ffffffffffffffffffffffffffffffffffffffff16319081150290604051600060405180830381858888f1935050505015156114d657600080fd5b565b60015481565b60045481565b600560009054906101000a900460ff1681565b600a5481565b670de0b6b3a764000081565b600860009054906101000a900473ffffffffffffffffffffffffffffffffffffffff1673ffffffffffffffffffffffffffffffffffffffff163373ffffffffffffffffffffffffffffffffffffffff1614151561156557600080fd5b80600560006101000a81548160ff02191690831515021790555050565b600c5481565b6000600354421015801561159f5750600254600154145b905090565b600860009054906101000a900473ffffffffffffffffffffffffffffffffffffffff16815600a165627a7a72305820d84af6e72e823284db1e97068503a15b682e7cce0da6e35b4cb7b6e59df68b120029",
  "source": "//! The dutch-auction contract.\r\n//!\r\n//! Copyright 2017 Gavin Wood, Parity Technologies Ltd.\r\n//!\r\n//! Licensed under the Apache License, Version 2.0 (the \"License\");\r\n//! you may not use this file except in compliance with the License.\r\n//! You may obtain a copy of the License at\r\n//!\r\n//!     http://www.apache.org/licenses/LICENSE-2.0\r\n//!\r\n//! Unless required by applicable law or agreed to in writing, software\r\n//! distributed under the License is distributed on an \"AS IS\" BASIS,\r\n//! WITHOUT WARRANTIES OR CONDITIONS OF ANY KIND, either express or implied.\r\n//! See the License for the specific language governing permissions and\r\n//! limitations under the License.\r\n\r\npragma solidity ^0.4.7;\r\n\r\nimport \"./SimpleCertifier.sol\";\r\n\r\n/// Stripped down ERC20 standard token interface.\r\ncontract Token {\r\n\tfunction transfer(address _to, uint256 _value) public returns (bool success);\r\n}\r\n\r\n/// Simple Dutch Auction contract. Price starts high and monotonically decreases\r\n/// until all tokens are sold at the current price with currently received\r\n/// funds.\r\ncontract DutchAuction {\r\n\t/// Someone bought in at a particular max-price.\r\n\tevent Buyin(address indexed who, uint price, uint spent, uint refund);\r\n\r\n\t/// The sale just ended with the current price.\r\n\tevent Ended(uint price);\r\n\r\n\t/// Finalised the purchase for `who`, who has been given `tokens` tokens and\r\n\t/// refunded `refund` (which is the remainder since only a whole number of\r\n\t/// tokens may be purchased).\r\n\tevent Finalised(address indexed who, uint tokens);\r\n\r\n\t/// Auction is over. All accounts finalised.\r\n\tevent Retired();\r\n\r\n\t/// Simple constructor.\r\n\tfunction DutchAuction(address _certifierContract, address _tokenContract, address _treasury, address _admin, uint _beginTime, uint _beginPrice, uint _saleSpeed, uint _tokenCap) public {\r\n\t\tcertifier = SimpleCertifier(_certifierContract);\r\n\t\ttokenContract = Token(_tokenContract);\r\n\t\ttreasury = _treasury;\r\n\t\tadmin = _admin;\r\n\t\tbeginTime = _beginTime;\r\n\t\tbeginPrice = _beginPrice;\r\n\t\tsaleSpeed = _saleSpeed;\r\n\t\ttokenCap = _tokenCap;\r\n\t\tendTime = beginTime + beginPrice / saleSpeed;\r\n\t}\r\n\r\n\t/// Buyin function. Throws if the sale is not active. May refund some of the\r\n\t/// funds if they would end the sale.\r\n\tfunction()\r\n        public\r\n\t\tpayable\r\n\t\twhen_not_halted\r\n\t\twhen_active\r\n\t\tavoid_dust\r\n\t\tonly_certified\r\n\t\tonly_limited_amount_or_highly_certified\r\n\t{\r\n\t\tuint price = currentPrice();\r\n\t\tuint tokens = msg.value / price;\r\n\t\tuint refund = 0;\r\n\t\tuint accepted = msg.value;\r\n\r\n\t\t// if we've asked for too many, send back the extra.\r\n\t\tif (tokens > tokensAvailable()) {\r\n\t\t\trefund = (tokens - tokensAvailable()) * price;\r\n\t\t\tif (!msg.sender.send(refund)) { revert(); }\r\n\t\t\ttokens = tokensAvailable();\r\n\t\t\taccepted -= refund;\r\n\t\t}\r\n\r\n\t\t// send rest to treasury\r\n\t\tif (!treasury.send(accepted)) { revert(); }\r\n\r\n\t\t// record the acceptance.\r\n\t\tparticipants[msg.sender] += accepted;\r\n\t\ttotalReceived += accepted;\r\n\t\tuint targetPrice = totalReceived / tokenCap;\r\n\t\tuint salePriceDrop = beginPrice - targetPrice;\r\n\t\tuint saleDuration = salePriceDrop / saleSpeed;\r\n\t\tendTime = beginTime + saleDuration;\r\n\t\tBuyin(msg.sender, price, accepted, refund);\r\n\t}\r\n\r\n\t/// Mint tokens for a particular participant.\r\n\tfunction finalise(address _who)\r\n        public\r\n\t\twhen_not_halted\r\n\t\twhen_ended\r\n\t\tonly_participants(_who)\r\n\t{\r\n\t\t// end the auction if we're the first one to finalise.\r\n\t\tif (endPrice == 0) {\r\n\t\t\tendPrice = totalReceived / tokenCap;\r\n\t\t\tEnded(endPrice);\r\n\t\t}\r\n\r\n\t\t// enact the purchase.\r\n\t\tuint tokens = participants[_who] / endPrice;\r\n//\t\tuint refund = participants[_who] - endPrice * tokens;\r\n\t\ttotalFinalised += participants[_who];\r\n\t\tparticipants[_who] = 0;\r\n\t\tif (!tokenContract.transfer(_who, tokens)) { revert(); }\r\n\r\n\t\tFinalised(_who, tokens);\r\n\r\n\t\tif (totalFinalised == totalReceived) {\r\n\t\t\tRetired();\r\n\t\t}\r\n\t}\r\n\r\n\t/// Emergency function to pause buy-in and finalisation.\r\n\tfunction setHalted(bool _halted) public only_admin { halted = _halted; }\r\n\r\n\t/// Emergency function to drain the contract of any funds.\r\n\tfunction drain() public only_admin { if (!treasury.send(this.balance)) { revert(); } }\r\n\r\n\t/// Kill this contract once the sale is finished.\r\n\tfunction kill() public when_all_finalised { selfdestruct(admin); }\r\n\r\n\t/// The current price for a single token. If a buyin happens now, this is\r\n\t/// the highest price per token that the buyer will pay.\r\n\tfunction currentPrice() public constant returns (uint weiPerToken) {\r\n\t\tif (!isActive()) return 0;\r\n\t\treturn beginPrice - (now - beginTime) * saleSpeed;\r\n\t}\r\n\r\n\t/// Returns the tokens available for purchase right now.\r\n\tfunction tokensAvailable() public constant returns (uint tokens) {\r\n\t\tif (!isActive()) return 0;\r\n\t\treturn tokenCap - totalReceived / currentPrice();\r\n\t}\r\n\r\n\t/// The largest purchase than can be made at present.\r\n\tfunction maxPurchase() public constant returns (uint spend) {\r\n\t\tif (!isActive()) return 0;\r\n\t\treturn tokenCap * currentPrice() - totalReceived;\r\n\t}\r\n\r\n\t/// True if the sale is ongoing.\r\n\tfunction isActive() public constant returns (bool) { return now >= beginTime && now < endTime; }\r\n\r\n\t/// True if all participants have finalised.\r\n\tfunction allFinalised() public constant returns (bool) { return now >= endTime && totalReceived == totalFinalised; }\r\n\r\n\t/// Ensure the sale is ongoing.\r\n\tmodifier when_active { require(isActive()); _; }\r\n\r\n\t/// Ensure the sale is ended.\r\n\tmodifier when_ended { require(now >= endTime); _; }\r\n\r\n\t/// Ensure we're not halted.\r\n\tmodifier when_not_halted { require(!halted); _; }\r\n\r\n\t/// Ensure all participants have finalised.\r\n\tmodifier when_all_finalised { require(allFinalised()); _; }\r\n\r\n\t/// Ensure the sender sent a sensible amount of ether.\r\n\tmodifier avoid_dust { require(msg.value >= DUST_LIMIT); _; }\r\n\r\n\t/// Ensure `_who` is a participant.\r\n\tmodifier only_participants(address _who) { require(participants[_who] != 0); _; }\r\n\r\n\t/// Ensure sender is admin.\r\n\tmodifier only_admin { require(msg.sender == admin); _; }\r\n\r\n\t/// Ensure sender is certified.\r\n\tmodifier only_certified { require(certifier.getCertifiedLevel(msg.sender) != Certifier.Level.Revoked); _; }\r\n\r\n\t/// Ensure sender is certified for that amount.\r\n\tmodifier only_limited_amount_or_highly_certified {\r\n\t\tif (msg.value < HIGHLY_CERTIFIED_LIMIT) {\r\n\t\t\t_;\r\n\t\t} else if (certifier.getCertifiedLevel(msg.sender) == Certifier.Level.Level_2) {\r\n\t\t\t_;\r\n\t\t} else if (certifier.getCertifiedLevel(msg.sender) == Certifier.Level.Level_3) {\r\n\t\t\t_;\r\n\t\t} else {\r\n\t\t\trevert();\r\n\t\t}\r\n\t}\r\n\r\n\t// State:\r\n\r\n\t/// The auction participants.\r\n\tmapping (address => uint) public participants;\r\n\r\n\t/// Total amount of ether received.\r\n\tuint public totalReceived = 0;\r\n\r\n\t/// Total amount of ether which has been finalised.\r\n\tuint public totalFinalised = 0;\r\n\r\n\t/// The current end time. Gets updated when new funds are received.\r\n\tuint public endTime;\r\n\r\n\t/// The price per token; only valid once the sale has ended and at least one\r\n\t/// participant has finalised.\r\n\tuint public endPrice;\r\n\r\n\t/// Must be false for any public function to be called.\r\n\tbool public halted;\r\n\r\n\t// Constants after constructor:\r\n\r\n\t/// The certifier.\r\n\tSimpleCertifier public certifier;\r\n\r\n\t/// The tokens contract.\r\n\tToken public tokenContract;\r\n\r\n\t/// The treasury address; where all the Ether goes.\r\n\taddress public treasury;\r\n\r\n\t/// The admin address; auction can be paused or halted at any time by this.\r\n\taddress public admin;\r\n\r\n\t/// The time at which the sale begins.\r\n\tuint public beginTime;\r\n\r\n\t/// Price at which the sale begins.\r\n\tuint public beginPrice;\r\n\r\n\t/// The speed at which the price reduces, in Wei per second.\r\n\tuint public saleSpeed;\r\n\r\n\t/// Maximum amount of tokens to mint. Once totalSale / currentPrice is\r\n\t/// greater than this, the sale ends.\r\n\tuint public tokenCap;\r\n\r\n\t// Static constants:\r\n\r\n\t/// Anything less than this is considered dust and cannot be used to buy in.\r\n\tuint constant public DUST_LIMIT = 10 finney;\r\n\r\n\t// Constant values for the different levels of certification\r\n\tuint constant public HIGHLY_CERTIFIED_LIMIT = 1 ether;\r\n\r\n}\r\n",
  "sourcePath": "C:\\Users\\cir\\Workspace\\diamondcoin\\ti8m-smart-contracts\\contracts\\DutchAuction.sol",
  "compiler": {
    "name": "solc",
    "version": "0.4.19+commit.c4cbbb05.Emscripten.clang"
  },
  "schemaVersion": "2.0.0",
  "updatedAt": "2018-03-22T12:51:53.196Z"
}