{
  "contractName": "SimpleCertifier",
  "abi": [
    {
      "constant": false,
      "inputs": [
        {
          "name": "_new",
          "type": "address"
        }
      ],
      "name": "setOwner",
      "outputs": [],
      "payable": false,
      "stateMutability": "nonpayable",
      "type": "function"
    },
    {
      "constant": true,
      "inputs": [],
      "name": "owner",
      "outputs": [
        {
          "name": "",
          "type": "address"
        }
      ],
      "payable": false,
      "stateMutability": "view",
      "type": "function"
    },
    {
      "constant": true,
      "inputs": [],
      "name": "delegate",
      "outputs": [
        {
          "name": "",
          "type": "address"
        }
      ],
      "payable": false,
      "stateMutability": "view",
      "type": "function"
    },
    {
      "anonymous": false,
      "inputs": [
        {
          "indexed": true,
          "name": "who",
          "type": "address"
        },
        {
          "indexed": false,
          "name": "level",
          "type": "uint256"
        },
        {
          "indexed": true,
          "name": "receiveWallet",
          "type": "address"
        }
      ],
      "name": "Confirmed",
      "type": "event"
    },
    {
      "anonymous": false,
      "inputs": [
        {
          "indexed": true,
          "name": "who",
          "type": "address"
        }
      ],
      "name": "Revoked",
      "type": "event"
    },
    {
      "anonymous": false,
      "inputs": [
        {
          "indexed": true,
          "name": "old",
          "type": "address"
        },
        {
          "indexed": true,
          "name": "current",
          "type": "address"
        }
      ],
      "name": "NewOwner",
      "type": "event"
    },
    {
      "constant": false,
      "inputs": [
        {
          "name": "_who",
          "type": "address"
        },
        {
          "name": "level",
          "type": "uint256"
        },
        {
          "name": "receiveWallet",
          "type": "address"
        }
      ],
      "name": "certify",
      "outputs": [],
      "payable": false,
      "stateMutability": "nonpayable",
      "type": "function"
    },
    {
      "constant": false,
      "inputs": [
        {
          "name": "_who",
          "type": "address"
        }
      ],
      "name": "revoke",
      "outputs": [],
      "payable": false,
      "stateMutability": "nonpayable",
      "type": "function"
    },
    {
      "constant": true,
      "inputs": [
        {
          "name": "_who",
          "type": "address"
        }
      ],
      "name": "getCertifiedLevel",
      "outputs": [
        {
          "name": "",
          "type": "uint8"
        }
      ],
      "payable": false,
      "stateMutability": "view",
      "type": "function"
    },
    {
      "constant": true,
      "inputs": [
        {
          "name": "_who",
          "type": "address"
        }
      ],
      "name": "getCertifiedReceiveWallet",
      "outputs": [
        {
          "name": "",
          "type": "address"
        }
      ],
      "payable": false,
      "stateMutability": "view",
      "type": "function"
    },
    {
      "constant": false,
      "inputs": [
        {
          "name": "_new",
          "type": "address"
        }
      ],
      "name": "setDelegate",
      "outputs": [],
      "payable": false,
      "stateMutability": "nonpayable",
      "type": "function"
    }
  ],
  "bytecode": "0x6060604052336000806101000a81548173ffffffffffffffffffffffffffffffffffffffff021916908373ffffffffffffffffffffffffffffffffffffffff16021790555033600260006101000a81548173ffffffffffffffffffffffffffffffffffffffff021916908373ffffffffffffffffffffffffffffffffffffffff160217905550341561009057600080fd5b6109448061009f6000396000f30060606040526004361061008e576000357c0100000000000000000000000000000000000000000000000000000000900463ffffffff16806313af4035146100935780633cc5c97c146100cc57806350c8a0511461012d57806374a8f103146101885780638da5cb5b146101c1578063c89e436114610216578063ca5eb5e11461026b578063cd116f0d146102a4575b600080fd5b341561009e57600080fd5b6100ca600480803573ffffffffffffffffffffffffffffffffffffffff1690602001909190505061031d565b005b34156100d757600080fd5b61012b600480803573ffffffffffffffffffffffffffffffffffffffff1690602001909190803590602001909190803573ffffffffffffffffffffffffffffffffffffffff16906020019091905050610436565b005b341561013857600080fd5b610164600480803573ffffffffffffffffffffffffffffffffffffffff169060200190919050506105ec565b6040518082600381111561017457fe5b60ff16815260200191505060405180910390f35b341561019357600080fd5b6101bf600480803573ffffffffffffffffffffffffffffffffffffffff16906020019091905050610645565b005b34156101cc57600080fd5b6101d46107c2565b604051808273ffffffffffffffffffffffffffffffffffffffff1673ffffffffffffffffffffffffffffffffffffffff16815260200191505060405180910390f35b341561022157600080fd5b6102296107e7565b604051808273ffffffffffffffffffffffffffffffffffffffff1673ffffffffffffffffffffffffffffffffffffffff16815260200191505060405180910390f35b341561027657600080fd5b6102a2600480803573ffffffffffffffffffffffffffffffffffffffff1690602001909190505061080d565b005b34156102af57600080fd5b6102db600480803573ffffffffffffffffffffffffffffffffffffffff169060200190919050506108ac565b604051808273ffffffffffffffffffffffffffffffffffffffff1673ffffffffffffffffffffffffffffffffffffffff16815260200191505060405180910390f35b6000809054906101000a900473ffffffffffffffffffffffffffffffffffffffff1673ffffffffffffffffffffffffffffffffffffffff163373ffffffffffffffffffffffffffffffffffffffff1614151561037857600080fd5b8073ffffffffffffffffffffffffffffffffffffffff166000809054906101000a900473ffffffffffffffffffffffffffffffffffffffff1673ffffffffffffffffffffffffffffffffffffffff167f70aea8d848e8a90fb7661b227dc522eb6395c3dac71b63cb59edd5c9899b236460405160405180910390a3806000806101000a81548173ffffffffffffffffffffffffffffffffffffffff021916908373ffffffffffffffffffffffffffffffffffffffff16021790555050565b600260009054906101000a900473ffffffffffffffffffffffffffffffffffffffff1673ffffffffffffffffffffffffffffffffffffffff163373ffffffffffffffffffffffffffffffffffffffff16141515610492576105e7565b81600381111561049e57fe5b600160008573ffffffffffffffffffffffffffffffffffffffff1673ffffffffffffffffffffffffffffffffffffffff16815260200190815260200160002060000160006101000a81548160ff021916908360038111156104fb57fe5b021790555080600160008573ffffffffffffffffffffffffffffffffffffffff1673ffffffffffffffffffffffffffffffffffffffff16815260200190815260200160002060000160016101000a81548173ffffffffffffffffffffffffffffffffffffffff021916908373ffffffffffffffffffffffffffffffffffffffff1602179055508073ffffffffffffffffffffffffffffffffffffffff168373ffffffffffffffffffffffffffffffffffffffff167fed2af180f15fbd457a663e967281caf2c9077e7122dc71fc0a242feb6e52e8c1846040518082815260200191505060405180910390a35b505050565b6000600160008373ffffffffffffffffffffffffffffffffffffffff1673ffffffffffffffffffffffffffffffffffffffff16815260200190815260200160002060000160009054906101000a900460ff169050919050565b600260009054906101000a900473ffffffffffffffffffffffffffffffffffffffff1673ffffffffffffffffffffffffffffffffffffffff163373ffffffffffffffffffffffffffffffffffffffff161415156106a1576107bf565b80600060038111156106af57fe5b600160008373ffffffffffffffffffffffffffffffffffffffff1673ffffffffffffffffffffffffffffffffffffffff16815260200190815260200160002060000160009054906101000a900460ff16600381111561070a57fe5b1415610715576107bd565b6000600160008473ffffffffffffffffffffffffffffffffffffffff1673ffffffffffffffffffffffffffffffffffffffff16815260200190815260200160002060000160006101000a81548160ff0219169083600381111561077457fe5b02179055508173ffffffffffffffffffffffffffffffffffffffff167fb6fa8b8bd5eab60f292eca876e3ef90722275b785309d84b1de113ce0b8c4e7460405160405180910390a25b505b50565b6000809054906101000a900473ffffffffffffffffffffffffffffffffffffffff1681565b600260009054906101000a900473ffffffffffffffffffffffffffffffffffffffff1681565b6000809054906101000a900473ffffffffffffffffffffffffffffffffffffffff1673ffffffffffffffffffffffffffffffffffffffff163373ffffffffffffffffffffffffffffffffffffffff1614151561086857600080fd5b80600260006101000a81548173ffffffffffffffffffffffffffffffffffffffff021916908373ffffffffffffffffffffffffffffffffffffffff16021790555050565b6000600160008373ffffffffffffffffffffffffffffffffffffffff1673ffffffffffffffffffffffffffffffffffffffff16815260200190815260200160002060000160019054906101000a900473ffffffffffffffffffffffffffffffffffffffff1690509190505600a165627a7a72305820ac14e8088c497cde37550a7bee9ee14decbd1ddaa8fe9c30a86599c33a3363950029",
  "source": "//! The SimpleCertifier contract, taken from paritytech/sms-verification.\r\n//!\r\n//! Copyright 2016 Gavin Wood, Parity Technologies Ltd.\r\n//!\r\n//! Licensed under the Apache License, Version 2.0 (the \"License\");\r\n//! you may not use this file except in compliance with the License.\r\n//! You may obtain a copy of the License at\r\n//!\r\n//!     http://www.apache.org/licenses/LICENSE-2.0\r\n//!\r\n//! Unless required by applicable law or agreed to in writing, software\r\n//! distributed under the License is distributed on an \"AS IS\" BASIS,\r\n//! WITHOUT WARRANTIES OR CONDITIONS OF ANY KIND, either express or implied.\r\n//! See the License for the specific language governing permissions and\r\n//! limitations under the License.\r\n\r\npragma solidity ^0.4.7;\r\n\r\nimport \"./Owned.sol\";\r\nimport \"./Certifier.sol\";\r\n\r\ncontract SimpleCertifier is Owned, Certifier {\r\n\tmodifier onlyDelegate {\r\n\t\tif (msg.sender != delegate)\r\n\t\t\treturn;\r\n\t\t_;\r\n\t}\r\n\r\n\tmodifier onlyCertified(address _who) {\r\n\t\tif (certs[_who].level == Level.Revoked)\r\n\t\t\treturn;\r\n\t\t_;\r\n\t}\r\n\r\n\tstruct Certification {\r\n\t\tLevel level;\r\n\t\taddress receiveWallet;\r\n\t}\r\n\r\n\tfunction certify(address _who, uint level, address receiveWallet) public onlyDelegate {\r\n\t\tcerts[_who].level = Level(level);\r\n\t\tcerts[_who].receiveWallet = receiveWallet;\r\n\t\tConfirmed(_who, level, receiveWallet);\r\n\t}\r\n\r\n\tfunction revoke(address _who) public onlyDelegate onlyCertified(_who) {\r\n\t\tcerts[_who].level = Level.Revoked;\r\n\t\tRevoked(_who);\r\n\t}\r\n\r\n\tfunction getCertifiedLevel(address _who) public constant returns (Level) {\r\n\t\treturn certs[_who].level;\r\n\t}\r\n\r\n\tfunction getCertifiedReceiveWallet(address _who) public constant returns (address) {\r\n\t\treturn certs[_who].receiveWallet;\r\n\t}\r\n\r\n\tfunction setDelegate(address _new) public only_owner { delegate = _new; }\r\n\r\n\tmapping (address => Certification) certs;\r\n\r\n\t// So that the server posting puzzles doesn't have access to the ETH.\r\n\taddress public delegate = msg.sender;\r\n}\r\n",
  "sourcePath": "C:\\Users\\cir\\Workspace\\diamondcoin\\ti8m-smart-contracts\\contracts\\SimpleCertifier.sol",
  "compiler": {
    "name": "solc",
    "version": "0.4.19+commit.c4cbbb05.Emscripten.clang"
  },
  "schemaVersion": "2.0.0",
  "updatedAt": "2018-03-22T12:51:53.207Z"
}