{
  "contractName": "SimpleCertifier",
  "abi": [
    {
      "constant": false,
      "inputs": [
        {
          "name": "_new",
          "type": "address"
        }
      ],
      "name": "setOwner",
      "outputs": [],
      "payable": false,
      "stateMutability": "nonpayable",
      "type": "function"
    },
    {
      "constant": true,
      "inputs": [
        {
          "name": "_who",
          "type": "address"
        },
        {
          "name": "_field",
          "type": "string"
        }
      ],
      "name": "getData",
      "outputs": [
        {
          "name": "",
          "type": "bytes32"
        }
      ],
      "payable": false,
      "stateMutability": "view",
      "type": "function"
    },
    {
      "constant": true,
      "inputs": [
        {
          "name": "_who",
          "type": "address"
        },
        {
          "name": "_field",
          "type": "string"
        }
      ],
      "name": "getAddress",
      "outputs": [
        {
          "name": "",
          "type": "address"
        }
      ],
      "payable": false,
      "stateMutability": "view",
      "type": "function"
    },
    {
      "constant": false,
      "inputs": [
        {
          "name": "_who",
          "type": "address"
        }
      ],
      "name": "revoke",
      "outputs": [],
      "payable": false,
      "stateMutability": "nonpayable",
      "type": "function"
    },
    {
      "constant": true,
      "inputs": [],
      "name": "owner",
      "outputs": [
        {
          "name": "",
          "type": "address"
        }
      ],
      "payable": false,
      "stateMutability": "view",
      "type": "function"
    },
    {
      "constant": false,
      "inputs": [
        {
          "name": "_who",
          "type": "address"
        },
        {
          "name": "level",
          "type": "uint256"
        }
      ],
      "name": "certify",
      "outputs": [],
      "payable": false,
      "stateMutability": "nonpayable",
      "type": "function"
    },
    {
      "constant": true,
      "inputs": [],
      "name": "delegate",
      "outputs": [
        {
          "name": "",
          "type": "address"
        }
      ],
      "payable": false,
      "stateMutability": "view",
      "type": "function"
    },
    {
      "constant": true,
      "inputs": [
        {
          "name": "_who",
          "type": "address"
        },
        {
          "name": "_field",
          "type": "string"
        }
      ],
      "name": "getUint",
      "outputs": [
        {
          "name": "",
          "type": "uint256"
        }
      ],
      "payable": false,
      "stateMutability": "view",
      "type": "function"
    },
    {
      "constant": false,
      "inputs": [
        {
          "name": "_new",
          "type": "address"
        }
      ],
      "name": "setDelegate",
      "outputs": [],
      "payable": false,
      "stateMutability": "nonpayable",
      "type": "function"
    },
    {
      "constant": true,
      "inputs": [
        {
          "name": "_who",
          "type": "address"
        }
      ],
      "name": "certified",
      "outputs": [
        {
          "name": "",
          "type": "bool"
        }
      ],
      "payable": false,
      "stateMutability": "view",
      "type": "function"
    },
    {
      "constant": true,
      "inputs": [
        {
          "name": "_who",
          "type": "address"
        },
        {
          "name": "_field",
          "type": "string"
        }
      ],
      "name": "get",
      "outputs": [
        {
          "name": "",
          "type": "bytes32"
        }
      ],
      "payable": false,
      "stateMutability": "view",
      "type": "function"
    },
    {
      "anonymous": false,
      "inputs": [
        {
          "indexed": true,
          "name": "who",
          "type": "address"
        }
      ],
      "name": "Confirmed",
      "type": "event"
    },
    {
      "anonymous": false,
      "inputs": [
        {
          "indexed": true,
          "name": "who",
          "type": "address"
        }
      ],
      "name": "Revoked",
      "type": "event"
    },
    {
      "anonymous": false,
      "inputs": [
        {
          "indexed": true,
          "name": "old",
          "type": "address"
        },
        {
          "indexed": true,
          "name": "current",
          "type": "address"
        }
      ],
      "name": "NewOwner",
      "type": "event"
    }
  ],
  "bytecode": "0x6060604052336000806101000a81548173ffffffffffffffffffffffffffffffffffffffff021916908373ffffffffffffffffffffffffffffffffffffffff16021790555033600260006101000a81548173ffffffffffffffffffffffffffffffffffffffff021916908373ffffffffffffffffffffffffffffffffffffffff160217905550341561009057600080fd5b610c7a8061009f6000396000f3006060604052600436106100af576000357c0100000000000000000000000000000000000000000000000000000000900463ffffffff16806313af4035146100b45780633bf58dba146100ed5780635283f3391461018557806374a8f103146102415780638da5cb5b1461027a578063ad0fc0cc146102cf578063c89e436114610311578063ca4cbf6714610366578063ca5eb5e1146103f6578063cc1d4c021461042f578063fc2525ab14610480575b600080fd5b34156100bf57600080fd5b6100eb600480803573ffffffffffffffffffffffffffffffffffffffff16906020019091905050610518565b005b34156100f857600080fd5b610167600480803573ffffffffffffffffffffffffffffffffffffffff1690602001909190803590602001908201803590602001908080601f01602080910402602001604051908101604052809392919081815260200183838082843782019150505050505091905050610631565b60405180826000191660001916815260200191505060405180910390f35b341561019057600080fd5b6101ff600480803573ffffffffffffffffffffffffffffffffffffffff1690602001909190803590602001908201803590602001908080601f01602080910402602001604051908101604052809392919081815260200183838082843782019150505050505091905050610639565b604051808273ffffffffffffffffffffffffffffffffffffffff1673ffffffffffffffffffffffffffffffffffffffff16815260200191505060405180910390f35b341561024c57600080fd5b610278600480803573ffffffffffffffffffffffffffffffffffffffff169060200190919050506106f3565b005b341561028557600080fd5b61028d610870565b604051808273ffffffffffffffffffffffffffffffffffffffff1673ffffffffffffffffffffffffffffffffffffffff16815260200191505060405180910390f35b34156102da57600080fd5b61030f600480803573ffffffffffffffffffffffffffffffffffffffff16906020019091908035906020019091905050610895565b005b341561031c57600080fd5b6103246109a7565b604051808273ffffffffffffffffffffffffffffffffffffffff1673ffffffffffffffffffffffffffffffffffffffff16815260200191505060405180910390f35b341561037157600080fd5b6103e0600480803573ffffffffffffffffffffffffffffffffffffffff1690602001909190803590602001908201803590602001908080601f016020809104026020016040519081016040528093929190818152602001838380828437820191505050505050919050506109cd565b6040518082815260200191505060405180910390f35b341561040157600080fd5b61042d600480803573ffffffffffffffffffffffffffffffffffffffff16906020019091905050610a87565b005b341561043a57600080fd5b610466600480803573ffffffffffffffffffffffffffffffffffffffff16906020019091905050610b26565b604051808215151515815260200191505060405180910390f35b341561048b57600080fd5b6104fa600480803573ffffffffffffffffffffffffffffffffffffffff1690602001909190803590602001908201803590602001908080601f01602080910402602001604051908101604052809392919081815260200183838082843782019150505050505091905050610b98565b60405180826000191660001916815260200191505060405180910390f35b6000809054906101000a900473ffffffffffffffffffffffffffffffffffffffff1673ffffffffffffffffffffffffffffffffffffffff163373ffffffffffffffffffffffffffffffffffffffff1614151561057357600080fd5b8073ffffffffffffffffffffffffffffffffffffffff166000809054906101000a900473ffffffffffffffffffffffffffffffffffffffff1673ffffffffffffffffffffffffffffffffffffffff167f70aea8d848e8a90fb7661b227dc522eb6395c3dac71b63cb59edd5c9899b236460405160405180910390a3806000806101000a81548173ffffffffffffffffffffffffffffffffffffffff021916908373ffffffffffffffffffffffffffffffffffffffff16021790555050565b600092915050565b6000600160008473ffffffffffffffffffffffffffffffffffffffff1673ffffffffffffffffffffffffffffffffffffffff168152602001908152602001600020600101826040518082805190602001908083835b6020831015156106b3578051825260208201915060208101905060208303925061068e565b6001836020036101000a03801982511681845116808217855250505050505090500191505090815260200160405180910390205460019004905092915050565b600260009054906101000a900473ffffffffffffffffffffffffffffffffffffffff1673ffffffffffffffffffffffffffffffffffffffff163373ffffffffffffffffffffffffffffffffffffffff1614151561074f5761086d565b806000600381111561075d57fe5b600160008373ffffffffffffffffffffffffffffffffffffffff1673ffffffffffffffffffffffffffffffffffffffff16815260200190815260200160002060000160009054906101000a900460ff1660038111156107b857fe5b14156107c35761086b565b6000600160008473ffffffffffffffffffffffffffffffffffffffff1673ffffffffffffffffffffffffffffffffffffffff16815260200190815260200160002060000160006101000a81548160ff0219169083600381111561082257fe5b02179055508173ffffffffffffffffffffffffffffffffffffffff167fb6fa8b8bd5eab60f292eca876e3ef90722275b785309d84b1de113ce0b8c4e7460405160405180910390a25b505b50565b6000809054906101000a900473ffffffffffffffffffffffffffffffffffffffff1681565b600260009054906101000a900473ffffffffffffffffffffffffffffffffffffffff1673ffffffffffffffffffffffffffffffffffffffff163373ffffffffffffffffffffffffffffffffffffffff161415156108f1576109a3565b8060038111156108fd57fe5b600160008473ffffffffffffffffffffffffffffffffffffffff1673ffffffffffffffffffffffffffffffffffffffff16815260200190815260200160002060000160006101000a81548160ff0219169083600381111561095a57fe5b02179055508173ffffffffffffffffffffffffffffffffffffffff167fd415b905d4dd806bfba99a7a0e6351bd0c9db3a9912add21c0e6bef4479f673f60405160405180910390a25b5050565b600260009054906101000a900473ffffffffffffffffffffffffffffffffffffffff1681565b6000600160008473ffffffffffffffffffffffffffffffffffffffff1673ffffffffffffffffffffffffffffffffffffffff168152602001908152602001600020600101826040518082805190602001908083835b602083101515610a475780518252602082019150602081019050602083039250610a22565b6001836020036101000a03801982511681845116808217855250505050505090500191505090815260200160405180910390205460019004905092915050565b6000809054906101000a900473ffffffffffffffffffffffffffffffffffffffff1673ffffffffffffffffffffffffffffffffffffffff163373ffffffffffffffffffffffffffffffffffffffff16141515610ae257600080fd5b80600260006101000a81548173ffffffffffffffffffffffffffffffffffffffff021916908373ffffffffffffffffffffffffffffffffffffffff16021790555050565b6000806003811115610b3457fe5b600160008473ffffffffffffffffffffffffffffffffffffffff1673ffffffffffffffffffffffffffffffffffffffff16815260200190815260200160002060000160009054906101000a900460ff166003811115610b8f57fe5b14159050919050565b6000600160008473ffffffffffffffffffffffffffffffffffffffff1673ffffffffffffffffffffffffffffffffffffffff168152602001908152602001600020600101826040518082805190602001908083835b602083101515610c125780518252602082019150602081019050602083039250610bed565b6001836020036101000a0380198251168184511680821785525050505050509050019150509081526020016040518091039020549050929150505600a165627a7a72305820ee8e059d2da13e82bdb9c82ffd818267c5d7dadafcc4a5eb61dc090100aa886e0029",
  "source": "//! The SimpleCertifier contract, taken from paritytech/sms-verification.\r\n//!\r\n//! Copyright 2016 Gavin Wood, Parity Technologies Ltd.\r\n//!\r\n//! Licensed under the Apache License, Version 2.0 (the \"License\");\r\n//! you may not use this file except in compliance with the License.\r\n//! You may obtain a copy of the License at\r\n//!\r\n//!     http://www.apache.org/licenses/LICENSE-2.0\r\n//!\r\n//! Unless required by applicable law or agreed to in writing, software\r\n//! distributed under the License is distributed on an \"AS IS\" BASIS,\r\n//! WITHOUT WARRANTIES OR CONDITIONS OF ANY KIND, either express or implied.\r\n//! See the License for the specific language governing permissions and\r\n//! limitations under the License.\r\n\r\npragma solidity ^0.4.7;\r\n\r\nimport \"./Owned.sol\";\r\nimport \"./Certifier.sol\";\r\n\r\ncontract SimpleCertifier is Owned, Certifier {\r\n\tenum Level {\r\n\t\tRevoked,\r\n\t\tLevel1,\r\n\t\tLevel2,\r\n\t\tLevel3\r\n\t}\r\n\r\n\tmodifier only_delegate { if (msg.sender != delegate) return; _; }\r\n\tmodifier only_certified(address _who) { if (certs[_who].activeLevel == Level.Revoked) return; _; }\r\n\r\n\tstruct Certification {\r\n\t\tLevel activeLevel;\r\n\t\tmapping (string => bytes32) meta;\r\n\t}\r\n\r\n\tfunction certify(address _who, uint level) only_delegate {\r\n\t\tcerts[_who].activeLevel = Level(level);\r\n\t\tConfirmed(_who);\r\n\t}\r\n\tfunction revoke(address _who) only_delegate only_certified(_who) {\r\n\t\tcerts[_who].activeLevel = Level.Revoked;\r\n\t\tRevoked(_who);\r\n\t}\r\n\tfunction certified(address _who) constant returns (bool) { return (certs[_who].activeLevel != Level.Revoked); }\r\n\tfunction get(address _who, string _field) constant returns (bytes32) { return certs[_who].meta[_field]; }\r\n\tfunction getAddress(address _who, string _field) constant returns (address) { return address(certs[_who].meta[_field]); }\r\n\tfunction getUint(address _who, string _field) constant returns (uint) { return uint(certs[_who].meta[_field]); }\r\n\tfunction setDelegate(address _new) only_owner { delegate = _new; }\r\n\r\n\tmapping (address => Certification) certs;\r\n\t// So that the server posting puzzles doesn't have access to the ETH.\r\n\taddress public delegate = msg.sender;\r\n}\r\n",
  "sourcePath": "C:\\Users\\anz\\Desktop\\PICOPS\\contracts\\SimpleCertifier.sol",
  "compiler": {
    "name": "solc",
    "version": "0.4.18+commit.9cf6e910.Emscripten.clang"
  },
  "schemaVersion": "1.0.1",
  "updatedAt": "2018-01-29T13:02:23.530Z"
}